{
	"contracts/TTT.sol": {
		"TechTalkTicket": {
			"abi": [
				{
					"inputs": [
						{
							"internalType": "address",
							"name": "_erc20Address",
							"type": "address"
						},
						{
							"internalType": "uint256",
							"name": "_eventCreationFee",
							"type": "uint256"
						}
					],
					"stateMutability": "nonpayable",
					"type": "constructor"
				},
				{
					"anonymous": false,
					"inputs": [
						{
							"components": [
								{
									"internalType": "uint256",
									"name": "id",
									"type": "uint256"
								},
								{
									"internalType": "string",
									"name": "name",
									"type": "string"
								},
								{
									"internalType": "uint256",
									"name": "maxTickets",
									"type": "uint256"
								},
								{
									"internalType": "uint256",
									"name": "startTime",
									"type": "uint256"
								},
								{
									"internalType": "uint256",
									"name": "createdAt",
									"type": "uint256"
								},
								{
									"internalType": "address",
									"name": "creator",
									"type": "address"
								}
							],
							"indexed": false,
							"internalType": "struct TechTalkTicket.TechTalkEvent",
							"name": "createdEvent",
							"type": "tuple"
						}
					],
					"name": "EventCreated",
					"type": "event"
				},
				{
					"inputs": [],
					"name": "contractOwnerAddress",
					"outputs": [
						{
							"internalType": "address",
							"name": "",
							"type": "address"
						}
					],
					"stateMutability": "view",
					"type": "function"
				},
				{
					"inputs": [
						{
							"internalType": "string",
							"name": "name",
							"type": "string"
						},
						{
							"internalType": "uint256",
							"name": "maxTickets",
							"type": "uint256"
						},
						{
							"internalType": "uint256",
							"name": "startTime",
							"type": "uint256"
						}
					],
					"name": "createEvent",
					"outputs": [],
					"stateMutability": "nonpayable",
					"type": "function"
				},
				{
					"inputs": [],
					"name": "erc20Address",
					"outputs": [
						{
							"internalType": "address",
							"name": "",
							"type": "address"
						}
					],
					"stateMutability": "view",
					"type": "function"
				},
				{
					"inputs": [],
					"name": "eventCreationFee",
					"outputs": [
						{
							"internalType": "uint256",
							"name": "",
							"type": "uint256"
						}
					],
					"stateMutability": "view",
					"type": "function"
				},
				{
					"inputs": [
						{
							"internalType": "uint256",
							"name": "",
							"type": "uint256"
						}
					],
					"name": "techTalkEvents",
					"outputs": [
						{
							"internalType": "uint256",
							"name": "id",
							"type": "uint256"
						},
						{
							"internalType": "string",
							"name": "name",
							"type": "string"
						},
						{
							"internalType": "uint256",
							"name": "maxTickets",
							"type": "uint256"
						},
						{
							"internalType": "uint256",
							"name": "startTime",
							"type": "uint256"
						},
						{
							"internalType": "uint256",
							"name": "createdAt",
							"type": "uint256"
						},
						{
							"internalType": "address",
							"name": "creator",
							"type": "address"
						}
					],
					"stateMutability": "view",
					"type": "function"
				}
			],
			"devdoc": {
				"kind": "dev",
				"methods": {},
				"version": 1
			},
			"evm": {
				"assembly": "    /* \"contracts/TTT.sol\":190:1816  contract TechTalkTicket {... */\n  mstore(0x40, 0x80)\n    /* \"contracts/TTT.sol\":792:1084  constructor(address _erc20Address, uint256 _eventCreationFee) {... */\n  callvalue\n  dup1\n  iszero\n  tag_1\n  jumpi\n  0x00\n  dup1\n  revert\ntag_1:\n  pop\n  mload(0x40)\n  sub(codesize, bytecodeSize)\n  dup1\n  bytecodeSize\n  dup4\n  codecopy\n  dup2\n  dup2\n  add\n  0x40\n  mstore\n  dup2\n  add\n  swap1\n  tag_2\n  swap2\n  swap1\n  tag_3\n  jump\t// in\ntag_2:\n    /* \"contracts/TTT.sol\":893:894  0 */\n  0x00\n    /* \"contracts/TTT.sol\":868:895  _erc20Address != address(0) */\n  0xffffffffffffffffffffffffffffffffffffffff\n  and\n    /* \"contracts/TTT.sol\":868:881  _erc20Address */\n  dup3\n    /* \"contracts/TTT.sol\":868:895  _erc20Address != address(0) */\n  0xffffffffffffffffffffffffffffffffffffffff\n  and\n  eq\n  iszero\n    /* \"contracts/TTT.sol\":860:926  require(_erc20Address != address(0), \"ERC20 address is required!\") */\n  tag_6\n  jumpi\n  mload(0x40)\n  0x08c379a000000000000000000000000000000000000000000000000000000000\n  dup2\n  mstore\n  0x04\n  add\n  tag_7\n  swap1\n  tag_8\n  jump\t// in\ntag_7:\n  mload(0x40)\n  dup1\n  swap2\n  sub\n  swap1\n  revert\ntag_6:\n    /* \"contracts/TTT.sol\":956:966  msg.sender */\n  caller\n    /* \"contracts/TTT.sol\":933:953  contractOwnerAddress */\n  0x00\n  dup1\n    /* \"contracts/TTT.sol\":933:966  contractOwnerAddress = msg.sender */\n  0x0100\n  exp\n  dup2\n  sload\n  dup2\n  0xffffffffffffffffffffffffffffffffffffffff\n  mul\n  not\n  and\n  swap1\n  dup4\n  0xffffffffffffffffffffffffffffffffffffffff\n  and\n  mul\n  or\n  swap1\n  sstore\n  pop\n    /* \"contracts/TTT.sol\":987:1000  _erc20Address */\n  dup2\n    /* \"contracts/TTT.sol\":972:984  erc20Address */\n  0x01\n  0x00\n    /* \"contracts/TTT.sol\":972:1000  erc20Address = _erc20Address */\n  0x0100\n  exp\n  dup2\n  sload\n  dup2\n  0xffffffffffffffffffffffffffffffffffffffff\n  mul\n  not\n  and\n  swap1\n  dup4\n  0xffffffffffffffffffffffffffffffffffffffff\n  and\n  mul\n  or\n  swap1\n  sstore\n  pop\n    /* \"contracts/TTT.sol\":1025:1042  _eventCreationFee */\n  dup1\n    /* \"contracts/TTT.sol\":1006:1022  eventCreationFee */\n  0x02\n    /* \"contracts/TTT.sol\":1006:1042  eventCreationFee = _eventCreationFee */\n  dup2\n  swap1\n  sstore\n  pop\n    /* \"contracts/TTT.sol\":1065:1078  _erc20Address */\n  dup2\n    /* \"contracts/TTT.sol\":1049:1055  _erc20 */\n  0x05\n  0x00\n    /* \"contracts/TTT.sol\":1049:1079  _erc20 = IERC20(_erc20Address) */\n  0x0100\n  exp\n  dup2\n  sload\n  dup2\n  0xffffffffffffffffffffffffffffffffffffffff\n  mul\n  not\n  and\n  swap1\n  dup4\n  0xffffffffffffffffffffffffffffffffffffffff\n  and\n  mul\n  or\n  swap1\n  sstore\n  pop\n    /* \"contracts/TTT.sol\":792:1084  constructor(address _erc20Address, uint256 _eventCreationFee) {... */\n  pop\n  pop\n    /* \"contracts/TTT.sol\":190:1816  contract TechTalkTicket {... */\n  jump(tag_9)\n    /* \"#utility.yul\":7:150   */\ntag_11:\n    /* \"#utility.yul\":64:69   */\n  0x00\n    /* \"#utility.yul\":95:101   */\n  dup2\n    /* \"#utility.yul\":89:102   */\n  mload\n    /* \"#utility.yul\":80:102   */\n  swap1\n  pop\n    /* \"#utility.yul\":111:144   */\n  tag_13\n    /* \"#utility.yul\":138:143   */\n  dup2\n    /* \"#utility.yul\":111:144   */\n  tag_14\n  jump\t// in\ntag_13:\n    /* \"#utility.yul\":7:150   */\n  swap3\n  swap2\n  pop\n  pop\n  jump\t// out\n    /* \"#utility.yul\":156:299   */\ntag_15:\n    /* \"#utility.yul\":213:218   */\n  0x00\n    /* \"#utility.yul\":244:250   */\n  dup2\n    /* \"#utility.yul\":238:251   */\n  mload\n    /* \"#utility.yul\":229:251   */\n  swap1\n  pop\n    /* \"#utility.yul\":260:293   */\n  tag_17\n    /* \"#utility.yul\":287:292   */\n  dup2\n    /* \"#utility.yul\":260:293   */\n  tag_18\n  jump\t// in\ntag_17:\n    /* \"#utility.yul\":156:299   */\n  swap3\n  swap2\n  pop\n  pop\n  jump\t// out\n    /* \"#utility.yul\":305:812   */\ntag_3:\n    /* \"#utility.yul\":384:390   */\n  0x00\n    /* \"#utility.yul\":392:398   */\n  dup1\n    /* \"#utility.yul\":441:443   */\n  0x40\n    /* \"#utility.yul\":429:438   */\n  dup4\n    /* \"#utility.yul\":420:427   */\n  dup6\n    /* \"#utility.yul\":416:439   */\n  sub\n    /* \"#utility.yul\":412:444   */\n  slt\n    /* \"#utility.yul\":409:528   */\n  iszero\n  tag_20\n  jumpi\n    /* \"#utility.yul\":447:526   */\n  tag_21\n  tag_22\n  jump\t// in\ntag_21:\n    /* \"#utility.yul\":409:528   */\ntag_20:\n    /* \"#utility.yul\":567:568   */\n  0x00\n    /* \"#utility.yul\":592:656   */\n  tag_23\n    /* \"#utility.yul\":648:655   */\n  dup6\n    /* \"#utility.yul\":639:645   */\n  dup3\n    /* \"#utility.yul\":628:637   */\n  dup7\n    /* \"#utility.yul\":624:646   */\n  add\n    /* \"#utility.yul\":592:656   */\n  tag_11\n  jump\t// in\ntag_23:\n    /* \"#utility.yul\":582:656   */\n  swap3\n  pop\n    /* \"#utility.yul\":538:666   */\n  pop\n    /* \"#utility.yul\":705:707   */\n  0x20\n    /* \"#utility.yul\":731:795   */\n  tag_24\n    /* \"#utility.yul\":787:794   */\n  dup6\n    /* \"#utility.yul\":778:784   */\n  dup3\n    /* \"#utility.yul\":767:776   */\n  dup7\n    /* \"#utility.yul\":763:785   */\n  add\n    /* \"#utility.yul\":731:795   */\n  tag_15\n  jump\t// in\ntag_24:\n    /* \"#utility.yul\":721:795   */\n  swap2\n  pop\n    /* \"#utility.yul\":676:805   */\n  pop\n    /* \"#utility.yul\":305:812   */\n  swap3\n  pop\n  swap3\n  swap1\n  pop\n  jump\t// out\n    /* \"#utility.yul\":818:1184   */\ntag_25:\n    /* \"#utility.yul\":960:963   */\n  0x00\n    /* \"#utility.yul\":981:1048   */\n  tag_27\n    /* \"#utility.yul\":1045:1047   */\n  0x1a\n    /* \"#utility.yul\":1040:1043   */\n  dup4\n    /* \"#utility.yul\":981:1048   */\n  tag_28\n  jump\t// in\ntag_27:\n    /* \"#utility.yul\":974:1048   */\n  swap2\n  pop\n    /* \"#utility.yul\":1057:1150   */\n  tag_29\n    /* \"#utility.yul\":1146:1149   */\n  dup3\n    /* \"#utility.yul\":1057:1150   */\n  tag_30\n  jump\t// in\ntag_29:\n    /* \"#utility.yul\":1175:1177   */\n  0x20\n    /* \"#utility.yul\":1170:1173   */\n  dup3\n    /* \"#utility.yul\":1166:1178   */\n  add\n    /* \"#utility.yul\":1159:1178   */\n  swap1\n  pop\n    /* \"#utility.yul\":818:1184   */\n  swap2\n  swap1\n  pop\n  jump\t// out\n    /* \"#utility.yul\":1190:1609   */\ntag_8:\n    /* \"#utility.yul\":1356:1360   */\n  0x00\n    /* \"#utility.yul\":1394:1396   */\n  0x20\n    /* \"#utility.yul\":1383:1392   */\n  dup3\n    /* \"#utility.yul\":1379:1397   */\n  add\n    /* \"#utility.yul\":1371:1397   */\n  swap1\n  pop\n    /* \"#utility.yul\":1443:1452   */\n  dup2\n    /* \"#utility.yul\":1437:1441   */\n  dup2\n    /* \"#utility.yul\":1433:1453   */\n  sub\n    /* \"#utility.yul\":1429:1430   */\n  0x00\n    /* \"#utility.yul\":1418:1427   */\n  dup4\n    /* \"#utility.yul\":1414:1431   */\n  add\n    /* \"#utility.yul\":1407:1454   */\n  mstore\n    /* \"#utility.yul\":1471:1602   */\n  tag_32\n    /* \"#utility.yul\":1597:1601   */\n  dup2\n    /* \"#utility.yul\":1471:1602   */\n  tag_25\n  jump\t// in\ntag_32:\n    /* \"#utility.yul\":1463:1602   */\n  swap1\n  pop\n    /* \"#utility.yul\":1190:1609   */\n  swap2\n  swap1\n  pop\n  jump\t// out\n    /* \"#utility.yul\":1696:1865   */\ntag_28:\n    /* \"#utility.yul\":1780:1791   */\n  0x00\n    /* \"#utility.yul\":1814:1820   */\n  dup3\n    /* \"#utility.yul\":1809:1812   */\n  dup3\n    /* \"#utility.yul\":1802:1821   */\n  mstore\n    /* \"#utility.yul\":1854:1858   */\n  0x20\n    /* \"#utility.yul\":1849:1852   */\n  dup3\n    /* \"#utility.yul\":1845:1859   */\n  add\n    /* \"#utility.yul\":1830:1859   */\n  swap1\n  pop\n    /* \"#utility.yul\":1696:1865   */\n  swap3\n  swap2\n  pop\n  pop\n  jump\t// out\n    /* \"#utility.yul\":1871:1967   */\ntag_36:\n    /* \"#utility.yul\":1908:1915   */\n  0x00\n    /* \"#utility.yul\":1937:1961   */\n  tag_38\n    /* \"#utility.yul\":1955:1960   */\n  dup3\n    /* \"#utility.yul\":1937:1961   */\n  tag_39\n  jump\t// in\ntag_38:\n    /* \"#utility.yul\":1926:1961   */\n  swap1\n  pop\n    /* \"#utility.yul\":1871:1967   */\n  swap2\n  swap1\n  pop\n  jump\t// out\n    /* \"#utility.yul\":1973:2099   */\ntag_39:\n    /* \"#utility.yul\":2010:2017   */\n  0x00\n    /* \"#utility.yul\":2050:2092   */\n  0xffffffffffffffffffffffffffffffffffffffff\n    /* \"#utility.yul\":2043:2048   */\n  dup3\n    /* \"#utility.yul\":2039:2093   */\n  and\n    /* \"#utility.yul\":2028:2093   */\n  swap1\n  pop\n    /* \"#utility.yul\":1973:2099   */\n  swap2\n  swap1\n  pop\n  jump\t// out\n    /* \"#utility.yul\":2105:2182   */\ntag_41:\n    /* \"#utility.yul\":2142:2149   */\n  0x00\n    /* \"#utility.yul\":2171:2176   */\n  dup2\n    /* \"#utility.yul\":2160:2176   */\n  swap1\n  pop\n    /* \"#utility.yul\":2105:2182   */\n  swap2\n  swap1\n  pop\n  jump\t// out\n    /* \"#utility.yul\":2311:2428   */\ntag_22:\n    /* \"#utility.yul\":2420:2421   */\n  0x00\n    /* \"#utility.yul\":2417:2418   */\n  dup1\n    /* \"#utility.yul\":2410:2422   */\n  revert\n    /* \"#utility.yul\":2434:2610   */\ntag_30:\n    /* \"#utility.yul\":2574:2602   */\n  0x4552433230206164647265737320697320726571756972656421000000000000\n    /* \"#utility.yul\":2570:2571   */\n  0x00\n    /* \"#utility.yul\":2562:2568   */\n  dup3\n    /* \"#utility.yul\":2558:2572   */\n  add\n    /* \"#utility.yul\":2551:2603   */\n  mstore\n    /* \"#utility.yul\":2434:2610   */\n  pop\n  jump\t// out\n    /* \"#utility.yul\":2616:2738   */\ntag_14:\n    /* \"#utility.yul\":2689:2713   */\n  tag_48\n    /* \"#utility.yul\":2707:2712   */\n  dup2\n    /* \"#utility.yul\":2689:2713   */\n  tag_36\n  jump\t// in\ntag_48:\n    /* \"#utility.yul\":2682:2687   */\n  dup2\n    /* \"#utility.yul\":2679:2714   */\n  eq\n    /* \"#utility.yul\":2669:2732   */\n  tag_49\n  jumpi\n    /* \"#utility.yul\":2728:2729   */\n  0x00\n    /* \"#utility.yul\":2725:2726   */\n  dup1\n    /* \"#utility.yul\":2718:2730   */\n  revert\n    /* \"#utility.yul\":2669:2732   */\ntag_49:\n    /* \"#utility.yul\":2616:2738   */\n  pop\n  jump\t// out\n    /* \"#utility.yul\":2744:2866   */\ntag_18:\n    /* \"#utility.yul\":2817:2841   */\n  tag_51\n    /* \"#utility.yul\":2835:2840   */\n  dup2\n    /* \"#utility.yul\":2817:2841   */\n  tag_41\n  jump\t// in\ntag_51:\n    /* \"#utility.yul\":2810:2815   */\n  dup2\n    /* \"#utility.yul\":2807:2842   */\n  eq\n    /* \"#utility.yul\":2797:2860   */\n  tag_52\n  jumpi\n    /* \"#utility.yul\":2856:2857   */\n  0x00\n    /* \"#utility.yul\":2853:2854   */\n  dup1\n    /* \"#utility.yul\":2846:2858   */\n  revert\n    /* \"#utility.yul\":2797:2860   */\ntag_52:\n    /* \"#utility.yul\":2744:2866   */\n  pop\n  jump\t// out\n    /* \"contracts/TTT.sol\":190:1816  contract TechTalkTicket {... */\ntag_9:\n  dataSize(sub_0)\n  dup1\n  dataOffset(sub_0)\n  0x00\n  codecopy\n  0x00\n  return\nstop\n\nsub_0: assembly {\n        /* \"contracts/TTT.sol\":190:1816  contract TechTalkTicket {... */\n      mstore(0x40, 0x80)\n      callvalue\n      dup1\n      iszero\n      tag_1\n      jumpi\n      0x00\n      dup1\n      revert\n    tag_1:\n      pop\n      jumpi(tag_2, lt(calldatasize, 0x04))\n      shr(0xe0, calldataload(0x00))\n      dup1\n      0x276184ae\n      eq\n      tag_3\n      jumpi\n      dup1\n      0x368fe891\n      eq\n      tag_4\n      jumpi\n      dup1\n      0x8ff62129\n      eq\n      tag_5\n      jumpi\n      dup1\n      0x9e9580f6\n      eq\n      tag_6\n      jumpi\n      dup1\n      0xcb44c5f3\n      eq\n      tag_7\n      jumpi\n    tag_2:\n      0x00\n      dup1\n      revert\n        /* \"contracts/TTT.sol\":307:334  address public erc20Address */\n    tag_3:\n      tag_8\n      tag_9\n      jump\t// in\n    tag_8:\n      mload(0x40)\n      tag_10\n      swap2\n      swap1\n      tag_11\n      jump\t// in\n    tag_10:\n      mload(0x40)\n      dup1\n      swap2\n      sub\n      swap1\n      return\n        /* \"contracts/TTT.sol\":373:428  mapping(uint256 => TechTalkEvent) public techTalkEvents */\n    tag_4:\n      tag_12\n      0x04\n      dup1\n      calldatasize\n      sub\n      dup2\n      add\n      swap1\n      tag_13\n      swap2\n      swap1\n      tag_14\n      jump\t// in\n    tag_13:\n      tag_15\n      jump\t// in\n    tag_12:\n      mload(0x40)\n      tag_16\n      swap7\n      swap6\n      swap5\n      swap4\n      swap3\n      swap2\n      swap1\n      tag_17\n      jump\t// in\n    tag_16:\n      mload(0x40)\n      dup1\n      swap2\n      sub\n      swap1\n      return\n        /* \"contracts/TTT.sol\":338:369  uint256 public eventCreationFee */\n    tag_5:\n      tag_18\n      tag_19\n      jump\t// in\n    tag_18:\n      mload(0x40)\n      tag_20\n      swap2\n      swap1\n      tag_21\n      jump\t// in\n    tag_20:\n      mload(0x40)\n      dup1\n      swap2\n      sub\n      swap1\n      return\n        /* \"contracts/TTT.sol\":1088:1814  function createEvent(string memory name, uint256 maxTickets, uint256 startTime) public {... */\n    tag_6:\n      tag_22\n      0x04\n      dup1\n      calldatasize\n      sub\n      dup2\n      add\n      swap1\n      tag_23\n      swap2\n      swap1\n      tag_24\n      jump\t// in\n    tag_23:\n      tag_25\n      jump\t// in\n    tag_22:\n      stop\n        /* \"contracts/TTT.sol\":268:303  address public contractOwnerAddress */\n    tag_7:\n      tag_26\n      tag_27\n      jump\t// in\n    tag_26:\n      mload(0x40)\n      tag_28\n      swap2\n      swap1\n      tag_11\n      jump\t// in\n    tag_28:\n      mload(0x40)\n      dup1\n      swap2\n      sub\n      swap1\n      return\n        /* \"contracts/TTT.sol\":307:334  address public erc20Address */\n    tag_9:\n      0x01\n      0x00\n      swap1\n      sload\n      swap1\n      0x0100\n      exp\n      swap1\n      div\n      0xffffffffffffffffffffffffffffffffffffffff\n      and\n      dup2\n      jump\t// out\n        /* \"contracts/TTT.sol\":373:428  mapping(uint256 => TechTalkEvent) public techTalkEvents */\n    tag_15:\n      mstore(0x20, 0x03)\n      dup1\n      0x00\n      mstore\n      keccak256(0x00, 0x40)\n      0x00\n      swap2\n      pop\n      swap1\n      pop\n      dup1\n      0x00\n      add\n      sload\n      swap1\n      dup1\n      0x01\n      add\n      dup1\n      sload\n      tag_29\n      swap1\n      tag_30\n      jump\t// in\n    tag_29:\n      dup1\n      0x1f\n      add\n      0x20\n      dup1\n      swap2\n      div\n      mul\n      0x20\n      add\n      mload(0x40)\n      swap1\n      dup2\n      add\n      0x40\n      mstore\n      dup1\n      swap3\n      swap2\n      swap1\n      dup2\n      dup2\n      mstore\n      0x20\n      add\n      dup3\n      dup1\n      sload\n      tag_31\n      swap1\n      tag_30\n      jump\t// in\n    tag_31:\n      dup1\n      iszero\n      tag_32\n      jumpi\n      dup1\n      0x1f\n      lt\n      tag_33\n      jumpi\n      0x0100\n      dup1\n      dup4\n      sload\n      div\n      mul\n      dup4\n      mstore\n      swap2\n      0x20\n      add\n      swap2\n      jump(tag_32)\n    tag_33:\n      dup3\n      add\n      swap2\n      swap1\n      0x00\n      mstore\n      keccak256(0x00, 0x20)\n      swap1\n    tag_34:\n      dup2\n      sload\n      dup2\n      mstore\n      swap1\n      0x01\n      add\n      swap1\n      0x20\n      add\n      dup1\n      dup4\n      gt\n      tag_34\n      jumpi\n      dup3\n      swap1\n      sub\n      0x1f\n      and\n      dup3\n      add\n      swap2\n    tag_32:\n      pop\n      pop\n      pop\n      pop\n      pop\n      swap1\n      dup1\n      0x02\n      add\n      sload\n      swap1\n      dup1\n      0x03\n      add\n      sload\n      swap1\n      dup1\n      0x04\n      add\n      sload\n      swap1\n      dup1\n      0x05\n      add\n      0x00\n      swap1\n      sload\n      swap1\n      0x0100\n      exp\n      swap1\n      div\n      0xffffffffffffffffffffffffffffffffffffffff\n      and\n      swap1\n      pop\n      dup7\n      jump\t// out\n        /* \"contracts/TTT.sol\":338:369  uint256 public eventCreationFee */\n    tag_19:\n      sload(0x02)\n      dup2\n      jump\t// out\n        /* \"contracts/TTT.sol\":1088:1814  function createEvent(string memory name, uint256 maxTickets, uint256 startTime) public {... */\n    tag_25:\n        /* \"contracts/TTT.sol\":1202:1203  0 */\n      0x00\n        /* \"contracts/TTT.sol\":1189:1199  maxTickets */\n      dup3\n        /* \"contracts/TTT.sol\":1189:1203  maxTickets > 0 */\n      gt\n        /* \"contracts/TTT.sol\":1181:1247  require(maxTickets > 0, \"Max tickets needs to be greater than 0!\") */\n      tag_36\n      jumpi\n      mload(0x40)\n      0x08c379a000000000000000000000000000000000000000000000000000000000\n      dup2\n      mstore\n      0x04\n      add\n      tag_37\n      swap1\n      tag_38\n      jump\t// in\n    tag_37:\n      mload(0x40)\n      dup1\n      swap2\n      sub\n      swap1\n      revert\n    tag_36:\n        /* \"contracts/TTT.sol\":1273:1288  block.timestamp */\n      timestamp\n        /* \"contracts/TTT.sol\":1261:1270  startTime */\n      dup2\n        /* \"contracts/TTT.sol\":1261:1288  startTime > block.timestamp */\n      gt\n        /* \"contracts/TTT.sol\":1253:1326  require(startTime > block.timestamp, \"Start time cannot be in the past!\") */\n      tag_39\n      jumpi\n      mload(0x40)\n      0x08c379a000000000000000000000000000000000000000000000000000000000\n      dup2\n      mstore\n      0x04\n      add\n      tag_40\n      swap1\n      tag_41\n      jump\t// in\n    tag_40:\n      mload(0x40)\n      dup1\n      swap2\n      sub\n      swap1\n      revert\n    tag_39:\n        /* \"contracts/TTT.sol\":1333:1339  _erc20 */\n      0x05\n      0x00\n      swap1\n      sload\n      swap1\n      0x0100\n      exp\n      swap1\n      div\n      0xffffffffffffffffffffffffffffffffffffffff\n      and\n        /* \"contracts/TTT.sol\":1333:1352  _erc20.transferFrom */\n      0xffffffffffffffffffffffffffffffffffffffff\n      and\n      0x23b872dd\n        /* \"contracts/TTT.sol\":1353:1363  msg.sender */\n      caller\n        /* \"contracts/TTT.sol\":1373:1393  contractOwnerAddress */\n      0x00\n      dup1\n      sload\n      swap1\n      0x0100\n      exp\n      swap1\n      div\n      0xffffffffffffffffffffffffffffffffffffffff\n      and\n        /* \"contracts/TTT.sol\":1396:1412  eventCreationFee */\n      sload(0x02)\n        /* \"contracts/TTT.sol\":1333:1413  _erc20.transferFrom(msg.sender, address(contractOwnerAddress), eventCreationFee) */\n      mload(0x40)\n      dup5\n      0xffffffff\n      and\n      0xe0\n      shl\n      dup2\n      mstore\n      0x04\n      add\n      tag_42\n      swap4\n      swap3\n      swap2\n      swap1\n      tag_43\n      jump\t// in\n    tag_42:\n      0x20\n      mload(0x40)\n      dup1\n      dup4\n      sub\n      dup2\n      0x00\n      dup8\n      dup1\n      extcodesize\n      iszero\n      dup1\n      iszero\n      tag_44\n      jumpi\n      0x00\n      dup1\n      revert\n    tag_44:\n      pop\n      gas\n      call\n      iszero\n      dup1\n      iszero\n      tag_46\n      jumpi\n      returndatasize\n      0x00\n      dup1\n      returndatacopy\n      revert(0x00, returndatasize)\n    tag_46:\n      pop\n      pop\n      pop\n      pop\n      mload(0x40)\n      returndatasize\n      not(0x1f)\n      0x1f\n      dup3\n      add\n      and\n      dup3\n      add\n      dup1\n      0x40\n      mstore\n      pop\n      dup2\n      add\n      swap1\n      tag_47\n      swap2\n      swap1\n      tag_48\n      jump\t// in\n    tag_47:\n      pop\n        /* \"contracts/TTT.sol\":1420:1435  _eventIdCounter */\n      0x06\n      0x00\n        /* \"contracts/TTT.sol\":1420:1437  _eventIdCounter++ */\n      dup2\n      sload\n      dup1\n      swap3\n      swap2\n      swap1\n      tag_49\n      swap1\n      tag_50\n      jump\t// in\n    tag_49:\n      swap2\n      swap1\n      pop\n      sstore\n      pop\n        /* \"contracts/TTT.sol\":1443:1473  TechTalkEvent storage newEvent */\n      0x00\n        /* \"contracts/TTT.sol\":1476:1490  techTalkEvents */\n      0x03\n        /* \"contracts/TTT.sol\":1476:1507  techTalkEvents[_eventIdCounter] */\n      0x00\n        /* \"contracts/TTT.sol\":1491:1506  _eventIdCounter */\n      sload(0x06)\n        /* \"contracts/TTT.sol\":1476:1507  techTalkEvents[_eventIdCounter] */\n      dup2\n      mstore\n      0x20\n      add\n      swap1\n      dup2\n      mstore\n      0x20\n      add\n      0x00\n      keccak256\n        /* \"contracts/TTT.sol\":1443:1507  TechTalkEvent storage newEvent = techTalkEvents[_eventIdCounter] */\n      swap1\n      pop\n        /* \"contracts/TTT.sol\":1527:1542  _eventIdCounter */\n      sload(0x06)\n        /* \"contracts/TTT.sol\":1513:1521  newEvent */\n      dup2\n        /* \"contracts/TTT.sol\":1513:1524  newEvent.id */\n      0x00\n      add\n        /* \"contracts/TTT.sol\":1513:1542  newEvent.id = _eventIdCounter */\n      dup2\n      swap1\n      sstore\n      pop\n        /* \"contracts/TTT.sol\":1564:1568  name */\n      dup4\n        /* \"contracts/TTT.sol\":1548:1556  newEvent */\n      dup2\n        /* \"contracts/TTT.sol\":1548:1561  newEvent.name */\n      0x01\n      add\n        /* \"contracts/TTT.sol\":1548:1568  newEvent.name = name */\n      swap1\n      dup1\n      mload\n      swap1\n      0x20\n      add\n      swap1\n      tag_51\n      swap3\n      swap2\n      swap1\n      tag_52\n      jump\t// in\n    tag_51:\n      pop\n        /* \"contracts/TTT.sol\":1596:1606  maxTickets */\n      dup3\n        /* \"contracts/TTT.sol\":1574:1582  newEvent */\n      dup2\n        /* \"contracts/TTT.sol\":1574:1593  newEvent.maxTickets */\n      0x02\n      add\n        /* \"contracts/TTT.sol\":1574:1606  newEvent.maxTickets = maxTickets */\n      dup2\n      swap1\n      sstore\n      pop\n        /* \"contracts/TTT.sol\":1633:1642  startTime */\n      dup2\n        /* \"contracts/TTT.sol\":1612:1620  newEvent */\n      dup2\n        /* \"contracts/TTT.sol\":1612:1630  newEvent.startTime */\n      0x03\n      add\n        /* \"contracts/TTT.sol\":1612:1642  newEvent.startTime = startTime */\n      dup2\n      swap1\n      sstore\n      pop\n        /* \"contracts/TTT.sol\":1669:1684  block.timestamp */\n      timestamp\n        /* \"contracts/TTT.sol\":1648:1656  newEvent */\n      dup2\n        /* \"contracts/TTT.sol\":1648:1666  newEvent.createdAt */\n      0x04\n      add\n        /* \"contracts/TTT.sol\":1648:1684  newEvent.createdAt = block.timestamp */\n      dup2\n      swap1\n      sstore\n      pop\n        /* \"contracts/TTT.sol\":1709:1719  msg.sender */\n      caller\n        /* \"contracts/TTT.sol\":1690:1698  newEvent */\n      dup2\n        /* \"contracts/TTT.sol\":1690:1706  newEvent.creator */\n      0x05\n      add\n      0x00\n        /* \"contracts/TTT.sol\":1690:1719  newEvent.creator = msg.sender */\n      0x0100\n      exp\n      dup2\n      sload\n      dup2\n      0xffffffffffffffffffffffffffffffffffffffff\n      mul\n      not\n      and\n      swap1\n      dup4\n      0xffffffffffffffffffffffffffffffffffffffff\n      and\n      mul\n      or\n      swap1\n      sstore\n      pop\n        /* \"contracts/TTT.sol\":1726:1775  _creatorEventIds[msg.sender].add(_eventIdCounter) */\n      tag_53\n        /* \"contracts/TTT.sol\":1759:1774  _eventIdCounter */\n      sload(0x06)\n        /* \"contracts/TTT.sol\":1726:1742  _creatorEventIds */\n      0x04\n        /* \"contracts/TTT.sol\":1726:1754  _creatorEventIds[msg.sender] */\n      0x00\n        /* \"contracts/TTT.sol\":1743:1753  msg.sender */\n      caller\n        /* \"contracts/TTT.sol\":1726:1754  _creatorEventIds[msg.sender] */\n      0xffffffffffffffffffffffffffffffffffffffff\n      and\n      0xffffffffffffffffffffffffffffffffffffffff\n      and\n      dup2\n      mstore\n      0x20\n      add\n      swap1\n      dup2\n      mstore\n      0x20\n      add\n      0x00\n      keccak256\n        /* \"contracts/TTT.sol\":1726:1758  _creatorEventIds[msg.sender].add */\n      tag_54\n      swap1\n        /* \"contracts/TTT.sol\":1726:1775  _creatorEventIds[msg.sender].add(_eventIdCounter) */\n      swap2\n      swap1\n      0xffffffff\n      and\n      jump\t// in\n    tag_53:\n      pop\n        /* \"contracts/TTT.sol\":1787:1809  EventCreated(newEvent) */\n      0x14d5903d3a66b5a84a9b071aa80c7e52f39083618872ed974acd3f2e6b359359\n        /* \"contracts/TTT.sol\":1800:1808  newEvent */\n      dup2\n        /* \"contracts/TTT.sol\":1787:1809  EventCreated(newEvent) */\n      mload(0x40)\n      tag_55\n      swap2\n      swap1\n      tag_56\n      jump\t// in\n    tag_55:\n      mload(0x40)\n      dup1\n      swap2\n      sub\n      swap1\n      log1\n        /* \"contracts/TTT.sol\":1175:1814  {... */\n      pop\n        /* \"contracts/TTT.sol\":1088:1814  function createEvent(string memory name, uint256 maxTickets, uint256 startTime) public {... */\n      pop\n      pop\n      pop\n      jump\t// out\n        /* \"contracts/TTT.sol\":268:303  address public contractOwnerAddress */\n    tag_27:\n      0x00\n      dup1\n      sload\n      swap1\n      0x0100\n      exp\n      swap1\n      div\n      0xffffffffffffffffffffffffffffffffffffffff\n      and\n      dup2\n      jump\t// out\n        /* \"@openzeppelin/contracts/utils/structs/EnumerableSet.sol\":10057:10186  function add(UintSet storage set, uint256 value) internal returns (bool) {... */\n    tag_54:\n        /* \"@openzeppelin/contracts/utils/structs/EnumerableSet.sol\":10124:10128  bool */\n      0x00\n        /* \"@openzeppelin/contracts/utils/structs/EnumerableSet.sol\":10147:10179  _add(set._inner, bytes32(value)) */\n      tag_58\n        /* \"@openzeppelin/contracts/utils/structs/EnumerableSet.sol\":10152:10155  set */\n      dup4\n        /* \"@openzeppelin/contracts/utils/structs/EnumerableSet.sol\":10152:10162  set._inner */\n      0x00\n      add\n        /* \"@openzeppelin/contracts/utils/structs/EnumerableSet.sol\":10172:10177  value */\n      dup4\n        /* \"@openzeppelin/contracts/utils/structs/EnumerableSet.sol\":10164:10178  bytes32(value) */\n      0x00\n      shl\n        /* \"@openzeppelin/contracts/utils/structs/EnumerableSet.sol\":10147:10151  _add */\n      tag_59\n        /* \"@openzeppelin/contracts/utils/structs/EnumerableSet.sol\":10147:10179  _add(set._inner, bytes32(value)) */\n      jump\t// in\n    tag_58:\n        /* \"@openzeppelin/contracts/utils/structs/EnumerableSet.sol\":10140:10179  return _add(set._inner, bytes32(value)) */\n      swap1\n      pop\n        /* \"@openzeppelin/contracts/utils/structs/EnumerableSet.sol\":10057:10186  function add(UintSet storage set, uint256 value) internal returns (bool) {... */\n      swap3\n      swap2\n      pop\n      pop\n      jump\t// out\n        /* \"@openzeppelin/contracts/utils/structs/EnumerableSet.sol\":1697:2101  function _add(Set storage set, bytes32 value) private returns (bool) {... */\n    tag_59:\n        /* \"@openzeppelin/contracts/utils/structs/EnumerableSet.sol\":1760:1764  bool */\n      0x00\n        /* \"@openzeppelin/contracts/utils/structs/EnumerableSet.sol\":1781:1802  _contains(set, value) */\n      tag_61\n        /* \"@openzeppelin/contracts/utils/structs/EnumerableSet.sol\":1791:1794  set */\n      dup4\n        /* \"@openzeppelin/contracts/utils/structs/EnumerableSet.sol\":1796:1801  value */\n      dup4\n        /* \"@openzeppelin/contracts/utils/structs/EnumerableSet.sol\":1781:1790  _contains */\n      tag_62\n        /* \"@openzeppelin/contracts/utils/structs/EnumerableSet.sol\":1781:1802  _contains(set, value) */\n      jump\t// in\n    tag_61:\n        /* \"@openzeppelin/contracts/utils/structs/EnumerableSet.sol\":1776:2095  if (!_contains(set, value)) {... */\n      tag_63\n      jumpi\n        /* \"@openzeppelin/contracts/utils/structs/EnumerableSet.sol\":1818:1821  set */\n      dup3\n        /* \"@openzeppelin/contracts/utils/structs/EnumerableSet.sol\":1818:1829  set._values */\n      0x00\n      add\n        /* \"@openzeppelin/contracts/utils/structs/EnumerableSet.sol\":1835:1840  value */\n      dup3\n        /* \"@openzeppelin/contracts/utils/structs/EnumerableSet.sol\":1818:1841  set._values.push(value) */\n      swap1\n      dup1\n      0x01\n      dup2\n      sload\n      add\n      dup1\n      dup3\n      sstore\n      dup1\n      swap2\n      pop\n      pop\n      0x01\n      swap1\n      sub\n      swap1\n      0x00\n      mstore\n      keccak256(0x00, 0x20)\n      add\n      0x00\n      swap1\n      swap2\n      swap1\n      swap2\n      swap1\n      swap2\n      pop\n      sstore\n        /* \"@openzeppelin/contracts/utils/structs/EnumerableSet.sol\":1998:2001  set */\n      dup3\n        /* \"@openzeppelin/contracts/utils/structs/EnumerableSet.sol\":1998:2009  set._values */\n      0x00\n      add\n        /* \"@openzeppelin/contracts/utils/structs/EnumerableSet.sol\":1998:2016  set._values.length */\n      dup1\n      sload\n      swap1\n      pop\n        /* \"@openzeppelin/contracts/utils/structs/EnumerableSet.sol\":1976:1979  set */\n      dup4\n        /* \"@openzeppelin/contracts/utils/structs/EnumerableSet.sol\":1976:1988  set._indexes */\n      0x01\n      add\n        /* \"@openzeppelin/contracts/utils/structs/EnumerableSet.sol\":1976:1995  set._indexes[value] */\n      0x00\n        /* \"@openzeppelin/contracts/utils/structs/EnumerableSet.sol\":1989:1994  value */\n      dup5\n        /* \"@openzeppelin/contracts/utils/structs/EnumerableSet.sol\":1976:1995  set._indexes[value] */\n      dup2\n      mstore\n      0x20\n      add\n      swap1\n      dup2\n      mstore\n      0x20\n      add\n      0x00\n      keccak256\n        /* \"@openzeppelin/contracts/utils/structs/EnumerableSet.sol\":1976:2016  set._indexes[value] = set._values.length */\n      dup2\n      swap1\n      sstore\n      pop\n        /* \"@openzeppelin/contracts/utils/structs/EnumerableSet.sol\":2037:2041  true */\n      0x01\n        /* \"@openzeppelin/contracts/utils/structs/EnumerableSet.sol\":2030:2041  return true */\n      swap1\n      pop\n      jump(tag_60)\n        /* \"@openzeppelin/contracts/utils/structs/EnumerableSet.sol\":1776:2095  if (!_contains(set, value)) {... */\n    tag_63:\n        /* \"@openzeppelin/contracts/utils/structs/EnumerableSet.sol\":2079:2084  false */\n      0x00\n        /* \"@openzeppelin/contracts/utils/structs/EnumerableSet.sol\":2072:2084  return false */\n      swap1\n      pop\n        /* \"@openzeppelin/contracts/utils/structs/EnumerableSet.sol\":1697:2101  function _add(Set storage set, bytes32 value) private returns (bool) {... */\n    tag_60:\n      swap3\n      swap2\n      pop\n      pop\n      jump\t// out\n        /* \"@openzeppelin/contracts/utils/structs/EnumerableSet.sol\":3738:3865  function _contains(Set storage set, bytes32 value) private view returns (bool) {... */\n    tag_62:\n        /* \"@openzeppelin/contracts/utils/structs/EnumerableSet.sol\":3811:3815  bool */\n      0x00\n        /* \"@openzeppelin/contracts/utils/structs/EnumerableSet.sol\":3857:3858  0 */\n      dup1\n        /* \"@openzeppelin/contracts/utils/structs/EnumerableSet.sol\":3834:3837  set */\n      dup4\n        /* \"@openzeppelin/contracts/utils/structs/EnumerableSet.sol\":3834:3846  set._indexes */\n      0x01\n      add\n        /* \"@openzeppelin/contracts/utils/structs/EnumerableSet.sol\":3834:3853  set._indexes[value] */\n      0x00\n        /* \"@openzeppelin/contracts/utils/structs/EnumerableSet.sol\":3847:3852  value */\n      dup5\n        /* \"@openzeppelin/contracts/utils/structs/EnumerableSet.sol\":3834:3853  set._indexes[value] */\n      dup2\n      mstore\n      0x20\n      add\n      swap1\n      dup2\n      mstore\n      0x20\n      add\n      0x00\n      keccak256\n      sload\n        /* \"@openzeppelin/contracts/utils/structs/EnumerableSet.sol\":3834:3858  set._indexes[value] != 0 */\n      eq\n      iszero\n        /* \"@openzeppelin/contracts/utils/structs/EnumerableSet.sol\":3827:3858  return set._indexes[value] != 0 */\n      swap1\n      pop\n        /* \"@openzeppelin/contracts/utils/structs/EnumerableSet.sol\":3738:3865  function _contains(Set storage set, bytes32 value) private view returns (bool) {... */\n      swap3\n      swap2\n      pop\n      pop\n      jump\t// out\n    tag_52:\n      dup3\n      dup1\n      sload\n      tag_67\n      swap1\n      tag_30\n      jump\t// in\n    tag_67:\n      swap1\n      0x00\n      mstore\n      keccak256(0x00, 0x20)\n      swap1\n      0x1f\n      add\n      0x20\n      swap1\n      div\n      dup2\n      add\n      swap3\n      dup3\n      tag_69\n      jumpi\n      0x00\n      dup6\n      sstore\n      jump(tag_68)\n    tag_69:\n      dup3\n      0x1f\n      lt\n      tag_70\n      jumpi\n      dup1\n      mload\n      not(0xff)\n      and\n      dup4\n      dup1\n      add\n      or\n      dup6\n      sstore\n      jump(tag_68)\n    tag_70:\n      dup3\n      dup1\n      add\n      0x01\n      add\n      dup6\n      sstore\n      dup3\n      iszero\n      tag_68\n      jumpi\n      swap2\n      dup3\n      add\n    tag_71:\n      dup3\n      dup2\n      gt\n      iszero\n      tag_72\n      jumpi\n      dup3\n      mload\n      dup3\n      sstore\n      swap2\n      0x20\n      add\n      swap2\n      swap1\n      0x01\n      add\n      swap1\n      jump(tag_71)\n    tag_72:\n    tag_68:\n      pop\n      swap1\n      pop\n      tag_73\n      swap2\n      swap1\n      tag_74\n      jump\t// in\n    tag_73:\n      pop\n      swap1\n      jump\t// out\n    tag_74:\n    tag_75:\n      dup1\n      dup3\n      gt\n      iszero\n      tag_76\n      jumpi\n      0x00\n      dup2\n      0x00\n      swap1\n      sstore\n      pop\n      0x01\n      add\n      jump(tag_75)\n    tag_76:\n      pop\n      swap1\n      jump\t// out\n        /* \"#utility.yul\":7:419   */\n    tag_78:\n        /* \"#utility.yul\":85:90   */\n      0x00\n        /* \"#utility.yul\":110:176   */\n      tag_80\n        /* \"#utility.yul\":126:175   */\n      tag_81\n        /* \"#utility.yul\":168:174   */\n      dup5\n        /* \"#utility.yul\":126:175   */\n      tag_82\n      jump\t// in\n    tag_81:\n        /* \"#utility.yul\":110:176   */\n      tag_83\n      jump\t// in\n    tag_80:\n        /* \"#utility.yul\":101:176   */\n      swap1\n      pop\n        /* \"#utility.yul\":199:205   */\n      dup3\n        /* \"#utility.yul\":192:197   */\n      dup2\n        /* \"#utility.yul\":185:206   */\n      mstore\n        /* \"#utility.yul\":237:241   */\n      0x20\n        /* \"#utility.yul\":230:235   */\n      dup2\n        /* \"#utility.yul\":226:242   */\n      add\n        /* \"#utility.yul\":275:278   */\n      dup5\n        /* \"#utility.yul\":266:272   */\n      dup5\n        /* \"#utility.yul\":261:264   */\n      dup5\n        /* \"#utility.yul\":257:273   */\n      add\n        /* \"#utility.yul\":254:279   */\n      gt\n        /* \"#utility.yul\":251:363   */\n      iszero\n      tag_84\n      jumpi\n        /* \"#utility.yul\":282:361   */\n      tag_85\n      tag_86\n      jump\t// in\n    tag_85:\n        /* \"#utility.yul\":251:363   */\n    tag_84:\n        /* \"#utility.yul\":372:413   */\n      tag_87\n        /* \"#utility.yul\":406:412   */\n      dup5\n        /* \"#utility.yul\":401:404   */\n      dup3\n        /* \"#utility.yul\":396:399   */\n      dup6\n        /* \"#utility.yul\":372:413   */\n      tag_88\n      jump\t// in\n    tag_87:\n        /* \"#utility.yul\":91:419   */\n      pop\n        /* \"#utility.yul\":7:419   */\n      swap4\n      swap3\n      pop\n      pop\n      pop\n      jump\t// out\n        /* \"#utility.yul\":425:562   */\n    tag_89:\n        /* \"#utility.yul\":479:484   */\n      0x00\n        /* \"#utility.yul\":510:516   */\n      dup2\n        /* \"#utility.yul\":504:517   */\n      mload\n        /* \"#utility.yul\":495:517   */\n      swap1\n      pop\n        /* \"#utility.yul\":526:556   */\n      tag_91\n        /* \"#utility.yul\":550:555   */\n      dup2\n        /* \"#utility.yul\":526:556   */\n      tag_92\n      jump\t// in\n    tag_91:\n        /* \"#utility.yul\":425:562   */\n      swap3\n      swap2\n      pop\n      pop\n      jump\t// out\n        /* \"#utility.yul\":582:922   */\n    tag_93:\n        /* \"#utility.yul\":638:643   */\n      0x00\n        /* \"#utility.yul\":687:690   */\n      dup3\n        /* \"#utility.yul\":680:684   */\n      0x1f\n        /* \"#utility.yul\":672:678   */\n      dup4\n        /* \"#utility.yul\":668:685   */\n      add\n        /* \"#utility.yul\":664:691   */\n      slt\n        /* \"#utility.yul\":654:776   */\n      tag_95\n      jumpi\n        /* \"#utility.yul\":695:774   */\n      tag_96\n      tag_97\n      jump\t// in\n    tag_96:\n        /* \"#utility.yul\":654:776   */\n    tag_95:\n        /* \"#utility.yul\":812:818   */\n      dup2\n        /* \"#utility.yul\":799:819   */\n      calldataload\n        /* \"#utility.yul\":837:916   */\n      tag_98\n        /* \"#utility.yul\":912:915   */\n      dup5\n        /* \"#utility.yul\":904:910   */\n      dup3\n        /* \"#utility.yul\":897:901   */\n      0x20\n        /* \"#utility.yul\":889:895   */\n      dup7\n        /* \"#utility.yul\":885:902   */\n      add\n        /* \"#utility.yul\":837:916   */\n      tag_78\n      jump\t// in\n    tag_98:\n        /* \"#utility.yul\":828:916   */\n      swap2\n      pop\n        /* \"#utility.yul\":644:922   */\n      pop\n        /* \"#utility.yul\":582:922   */\n      swap3\n      swap2\n      pop\n      pop\n      jump\t// out\n        /* \"#utility.yul\":928:1067   */\n    tag_99:\n        /* \"#utility.yul\":974:979   */\n      0x00\n        /* \"#utility.yul\":1012:1018   */\n      dup2\n        /* \"#utility.yul\":999:1019   */\n      calldataload\n        /* \"#utility.yul\":990:1019   */\n      swap1\n      pop\n        /* \"#utility.yul\":1028:1061   */\n      tag_101\n        /* \"#utility.yul\":1055:1060   */\n      dup2\n        /* \"#utility.yul\":1028:1061   */\n      tag_102\n      jump\t// in\n    tag_101:\n        /* \"#utility.yul\":928:1067   */\n      swap3\n      swap2\n      pop\n      pop\n      jump\t// out\n        /* \"#utility.yul\":1073:1418   */\n    tag_48:\n        /* \"#utility.yul\":1140:1146   */\n      0x00\n        /* \"#utility.yul\":1189:1191   */\n      0x20\n        /* \"#utility.yul\":1177:1186   */\n      dup3\n        /* \"#utility.yul\":1168:1175   */\n      dup5\n        /* \"#utility.yul\":1164:1187   */\n      sub\n        /* \"#utility.yul\":1160:1192   */\n      slt\n        /* \"#utility.yul\":1157:1276   */\n      iszero\n      tag_104\n      jumpi\n        /* \"#utility.yul\":1195:1274   */\n      tag_105\n      tag_106\n      jump\t// in\n    tag_105:\n        /* \"#utility.yul\":1157:1276   */\n    tag_104:\n        /* \"#utility.yul\":1315:1316   */\n      0x00\n        /* \"#utility.yul\":1340:1401   */\n      tag_107\n        /* \"#utility.yul\":1393:1400   */\n      dup5\n        /* \"#utility.yul\":1384:1390   */\n      dup3\n        /* \"#utility.yul\":1373:1382   */\n      dup6\n        /* \"#utility.yul\":1369:1391   */\n      add\n        /* \"#utility.yul\":1340:1401   */\n      tag_89\n      jump\t// in\n    tag_107:\n        /* \"#utility.yul\":1330:1401   */\n      swap2\n      pop\n        /* \"#utility.yul\":1286:1411   */\n      pop\n        /* \"#utility.yul\":1073:1418   */\n      swap3\n      swap2\n      pop\n      pop\n      jump\t// out\n        /* \"#utility.yul\":1424:2223   */\n    tag_24:\n        /* \"#utility.yul\":1511:1517   */\n      0x00\n        /* \"#utility.yul\":1519:1525   */\n      dup1\n        /* \"#utility.yul\":1527:1533   */\n      0x00\n        /* \"#utility.yul\":1576:1578   */\n      0x60\n        /* \"#utility.yul\":1564:1573   */\n      dup5\n        /* \"#utility.yul\":1555:1562   */\n      dup7\n        /* \"#utility.yul\":1551:1574   */\n      sub\n        /* \"#utility.yul\":1547:1579   */\n      slt\n        /* \"#utility.yul\":1544:1663   */\n      iszero\n      tag_109\n      jumpi\n        /* \"#utility.yul\":1582:1661   */\n      tag_110\n      tag_106\n      jump\t// in\n    tag_110:\n        /* \"#utility.yul\":1544:1663   */\n    tag_109:\n        /* \"#utility.yul\":1730:1731   */\n      0x00\n        /* \"#utility.yul\":1719:1728   */\n      dup5\n        /* \"#utility.yul\":1715:1732   */\n      add\n        /* \"#utility.yul\":1702:1733   */\n      calldataload\n        /* \"#utility.yul\":1760:1778   */\n      0xffffffffffffffff\n        /* \"#utility.yul\":1752:1758   */\n      dup2\n        /* \"#utility.yul\":1749:1779   */\n      gt\n        /* \"#utility.yul\":1746:1863   */\n      iszero\n      tag_111\n      jumpi\n        /* \"#utility.yul\":1782:1861   */\n      tag_112\n      tag_113\n      jump\t// in\n    tag_112:\n        /* \"#utility.yul\":1746:1863   */\n    tag_111:\n        /* \"#utility.yul\":1887:1950   */\n      tag_114\n        /* \"#utility.yul\":1942:1949   */\n      dup7\n        /* \"#utility.yul\":1933:1939   */\n      dup3\n        /* \"#utility.yul\":1922:1931   */\n      dup8\n        /* \"#utility.yul\":1918:1940   */\n      add\n        /* \"#utility.yul\":1887:1950   */\n      tag_93\n      jump\t// in\n    tag_114:\n        /* \"#utility.yul\":1877:1950   */\n      swap4\n      pop\n        /* \"#utility.yul\":1673:1960   */\n      pop\n        /* \"#utility.yul\":1999:2001   */\n      0x20\n        /* \"#utility.yul\":2025:2078   */\n      tag_115\n        /* \"#utility.yul\":2070:2077   */\n      dup7\n        /* \"#utility.yul\":2061:2067   */\n      dup3\n        /* \"#utility.yul\":2050:2059   */\n      dup8\n        /* \"#utility.yul\":2046:2068   */\n      add\n        /* \"#utility.yul\":2025:2078   */\n      tag_99\n      jump\t// in\n    tag_115:\n        /* \"#utility.yul\":2015:2078   */\n      swap3\n      pop\n        /* \"#utility.yul\":1970:2088   */\n      pop\n        /* \"#utility.yul\":2127:2129   */\n      0x40\n        /* \"#utility.yul\":2153:2206   */\n      tag_116\n        /* \"#utility.yul\":2198:2205   */\n      dup7\n        /* \"#utility.yul\":2189:2195   */\n      dup3\n        /* \"#utility.yul\":2178:2187   */\n      dup8\n        /* \"#utility.yul\":2174:2196   */\n      add\n        /* \"#utility.yul\":2153:2206   */\n      tag_99\n      jump\t// in\n    tag_116:\n        /* \"#utility.yul\":2143:2206   */\n      swap2\n      pop\n        /* \"#utility.yul\":2098:2216   */\n      pop\n        /* \"#utility.yul\":1424:2223   */\n      swap3\n      pop\n      swap3\n      pop\n      swap3\n      jump\t// out\n        /* \"#utility.yul\":2229:2558   */\n    tag_14:\n        /* \"#utility.yul\":2288:2294   */\n      0x00\n        /* \"#utility.yul\":2337:2339   */\n      0x20\n        /* \"#utility.yul\":2325:2334   */\n      dup3\n        /* \"#utility.yul\":2316:2323   */\n      dup5\n        /* \"#utility.yul\":2312:2335   */\n      sub\n        /* \"#utility.yul\":2308:2340   */\n      slt\n        /* \"#utility.yul\":2305:2424   */\n      iszero\n      tag_118\n      jumpi\n        /* \"#utility.yul\":2343:2422   */\n      tag_119\n      tag_106\n      jump\t// in\n    tag_119:\n        /* \"#utility.yul\":2305:2424   */\n    tag_118:\n        /* \"#utility.yul\":2463:2464   */\n      0x00\n        /* \"#utility.yul\":2488:2541   */\n      tag_120\n        /* \"#utility.yul\":2533:2540   */\n      dup5\n        /* \"#utility.yul\":2524:2530   */\n      dup3\n        /* \"#utility.yul\":2513:2522   */\n      dup6\n        /* \"#utility.yul\":2509:2531   */\n      add\n        /* \"#utility.yul\":2488:2541   */\n      tag_99\n      jump\t// in\n    tag_120:\n        /* \"#utility.yul\":2478:2541   */\n      swap2\n      pop\n        /* \"#utility.yul\":2434:2551   */\n      pop\n        /* \"#utility.yul\":2229:2558   */\n      swap3\n      swap2\n      pop\n      pop\n      jump\t// out\n        /* \"#utility.yul\":2564:2672   */\n    tag_121:\n        /* \"#utility.yul\":2641:2665   */\n      tag_123\n        /* \"#utility.yul\":2659:2664   */\n      dup2\n        /* \"#utility.yul\":2641:2665   */\n      tag_124\n      jump\t// in\n    tag_123:\n        /* \"#utility.yul\":2636:2639   */\n      dup3\n        /* \"#utility.yul\":2629:2666   */\n      mstore\n        /* \"#utility.yul\":2564:2672   */\n      pop\n      pop\n      jump\t// out\n        /* \"#utility.yul\":2678:2796   */\n    tag_125:\n        /* \"#utility.yul\":2765:2789   */\n      tag_127\n        /* \"#utility.yul\":2783:2788   */\n      dup2\n        /* \"#utility.yul\":2765:2789   */\n      tag_124\n      jump\t// in\n    tag_127:\n        /* \"#utility.yul\":2760:2763   */\n      dup3\n        /* \"#utility.yul\":2753:2790   */\n      mstore\n        /* \"#utility.yul\":2678:2796   */\n      pop\n      pop\n      jump\t// out\n        /* \"#utility.yul\":2802:3166   */\n    tag_128:\n        /* \"#utility.yul\":2890:2893   */\n      0x00\n        /* \"#utility.yul\":2918:2957   */\n      tag_130\n        /* \"#utility.yul\":2951:2956   */\n      dup3\n        /* \"#utility.yul\":2918:2957   */\n      tag_131\n      jump\t// in\n    tag_130:\n        /* \"#utility.yul\":2973:3044   */\n      tag_132\n        /* \"#utility.yul\":3037:3043   */\n      dup2\n        /* \"#utility.yul\":3032:3035   */\n      dup6\n        /* \"#utility.yul\":2973:3044   */\n      tag_133\n      jump\t// in\n    tag_132:\n        /* \"#utility.yul\":2966:3044   */\n      swap4\n      pop\n        /* \"#utility.yul\":3053:3105   */\n      tag_134\n        /* \"#utility.yul\":3098:3104   */\n      dup2\n        /* \"#utility.yul\":3093:3096   */\n      dup6\n        /* \"#utility.yul\":3086:3090   */\n      0x20\n        /* \"#utility.yul\":3079:3084   */\n      dup7\n        /* \"#utility.yul\":3075:3091   */\n      add\n        /* \"#utility.yul\":3053:3105   */\n      tag_135\n      jump\t// in\n    tag_134:\n        /* \"#utility.yul\":3130:3159   */\n      tag_136\n        /* \"#utility.yul\":3152:3158   */\n      dup2\n        /* \"#utility.yul\":3130:3159   */\n      tag_137\n      jump\t// in\n    tag_136:\n        /* \"#utility.yul\":3125:3128   */\n      dup5\n        /* \"#utility.yul\":3121:3160   */\n      add\n        /* \"#utility.yul\":3114:3160   */\n      swap2\n      pop\n        /* \"#utility.yul\":2894:3166   */\n      pop\n        /* \"#utility.yul\":2802:3166   */\n      swap3\n      swap2\n      pop\n      pop\n      jump\t// out\n        /* \"#utility.yul\":3196:3978   */\n    tag_138:\n        /* \"#utility.yul\":3271:3274   */\n      0x00\n        /* \"#utility.yul\":3308:3313   */\n      dup2\n        /* \"#utility.yul\":3302:3314   */\n      sload\n        /* \"#utility.yul\":3337:3373   */\n      tag_140\n        /* \"#utility.yul\":3363:3372   */\n      dup2\n        /* \"#utility.yul\":3337:3373   */\n      tag_30\n      jump\t// in\n    tag_140:\n        /* \"#utility.yul\":3389:3450   */\n      tag_141\n        /* \"#utility.yul\":3443:3449   */\n      dup2\n        /* \"#utility.yul\":3438:3441   */\n      dup7\n        /* \"#utility.yul\":3389:3450   */\n      tag_142\n      jump\t// in\n    tag_141:\n        /* \"#utility.yul\":3382:3450   */\n      swap5\n      pop\n        /* \"#utility.yul\":3481:3482   */\n      0x01\n        /* \"#utility.yul\":3470:3479   */\n      dup3\n        /* \"#utility.yul\":3466:3483   */\n      and\n        /* \"#utility.yul\":3497:3498   */\n      0x00\n        /* \"#utility.yul\":3492:3627   */\n      dup2\n      eq\n      tag_144\n      jumpi\n        /* \"#utility.yul\":3641:3642   */\n      0x01\n        /* \"#utility.yul\":3636:3972   */\n      dup2\n      eq\n      tag_145\n      jumpi\n        /* \"#utility.yul\":3459:3972   */\n      jump(tag_143)\n        /* \"#utility.yul\":3492:3627   */\n    tag_144:\n        /* \"#utility.yul\":3576:3580   */\n      0xff\n        /* \"#utility.yul\":3572:3581   */\n      not\n        /* \"#utility.yul\":3561:3570   */\n      dup4\n        /* \"#utility.yul\":3557:3582   */\n      and\n        /* \"#utility.yul\":3552:3555   */\n      dup7\n        /* \"#utility.yul\":3545:3583   */\n      mstore\n        /* \"#utility.yul\":3612:3616   */\n      0x20\n        /* \"#utility.yul\":3607:3610   */\n      dup7\n        /* \"#utility.yul\":3603:3617   */\n      add\n        /* \"#utility.yul\":3596:3617   */\n      swap4\n      pop\n        /* \"#utility.yul\":3492:3627   */\n      jump(tag_143)\n        /* \"#utility.yul\":3636:3972   */\n    tag_145:\n        /* \"#utility.yul\":3703:3741   */\n      tag_146\n        /* \"#utility.yul\":3735:3740   */\n      dup6\n        /* \"#utility.yul\":3703:3741   */\n      tag_147\n      jump\t// in\n    tag_146:\n        /* \"#utility.yul\":3763:3764   */\n      0x00\n        /* \"#utility.yul\":3777:3931   */\n    tag_148:\n        /* \"#utility.yul\":3791:3797   */\n      dup4\n        /* \"#utility.yul\":3788:3789   */\n      dup2\n        /* \"#utility.yul\":3785:3798   */\n      lt\n        /* \"#utility.yul\":3777:3931   */\n      iszero\n      tag_150\n      jumpi\n        /* \"#utility.yul\":3865:3872   */\n      dup2\n        /* \"#utility.yul\":3859:3873   */\n      sload\n        /* \"#utility.yul\":3855:3856   */\n      dup2\n        /* \"#utility.yul\":3850:3853   */\n      dup10\n        /* \"#utility.yul\":3846:3857   */\n      add\n        /* \"#utility.yul\":3839:3874   */\n      mstore\n        /* \"#utility.yul\":3915:3916   */\n      0x01\n        /* \"#utility.yul\":3906:3913   */\n      dup3\n        /* \"#utility.yul\":3902:3917   */\n      add\n        /* \"#utility.yul\":3891:3917   */\n      swap2\n      pop\n        /* \"#utility.yul\":3813:3817   */\n      0x20\n        /* \"#utility.yul\":3810:3811   */\n      dup2\n        /* \"#utility.yul\":3806:3818   */\n      add\n        /* \"#utility.yul\":3801:3818   */\n      swap1\n      pop\n        /* \"#utility.yul\":3777:3931   */\n      jump(tag_148)\n    tag_150:\n        /* \"#utility.yul\":3960:3961   */\n      dup1\n        /* \"#utility.yul\":3955:3958   */\n      dup9\n        /* \"#utility.yul\":3951:3962   */\n      add\n        /* \"#utility.yul\":3944:3962   */\n      swap6\n      pop\n        /* \"#utility.yul\":3643:3972   */\n      pop\n      pop\n        /* \"#utility.yul\":3459:3972   */\n    tag_143:\n      pop\n        /* \"#utility.yul\":3275:3978   */\n      pop\n      pop\n        /* \"#utility.yul\":3196:3978   */\n      swap3\n      swap2\n      pop\n      pop\n      jump\t// out\n        /* \"#utility.yul\":3984:4350   */\n    tag_151:\n        /* \"#utility.yul\":4126:4129   */\n      0x00\n        /* \"#utility.yul\":4147:4214   */\n      tag_153\n        /* \"#utility.yul\":4211:4213   */\n      0x21\n        /* \"#utility.yul\":4206:4209   */\n      dup4\n        /* \"#utility.yul\":4147:4214   */\n      tag_133\n      jump\t// in\n    tag_153:\n        /* \"#utility.yul\":4140:4214   */\n      swap2\n      pop\n        /* \"#utility.yul\":4223:4316   */\n      tag_154\n        /* \"#utility.yul\":4312:4315   */\n      dup3\n        /* \"#utility.yul\":4223:4316   */\n      tag_155\n      jump\t// in\n    tag_154:\n        /* \"#utility.yul\":4341:4343   */\n      0x40\n        /* \"#utility.yul\":4336:4339   */\n      dup3\n        /* \"#utility.yul\":4332:4344   */\n      add\n        /* \"#utility.yul\":4325:4344   */\n      swap1\n      pop\n        /* \"#utility.yul\":3984:4350   */\n      swap2\n      swap1\n      pop\n      jump\t// out\n        /* \"#utility.yul\":4356:4722   */\n    tag_156:\n        /* \"#utility.yul\":4498:4501   */\n      0x00\n        /* \"#utility.yul\":4519:4586   */\n      tag_158\n        /* \"#utility.yul\":4583:4585   */\n      0x27\n        /* \"#utility.yul\":4578:4581   */\n      dup4\n        /* \"#utility.yul\":4519:4586   */\n      tag_133\n      jump\t// in\n    tag_158:\n        /* \"#utility.yul\":4512:4586   */\n      swap2\n      pop\n        /* \"#utility.yul\":4595:4688   */\n      tag_159\n        /* \"#utility.yul\":4684:4687   */\n      dup3\n        /* \"#utility.yul\":4595:4688   */\n      tag_160\n      jump\t// in\n    tag_159:\n        /* \"#utility.yul\":4713:4715   */\n      0x40\n        /* \"#utility.yul\":4708:4711   */\n      dup3\n        /* \"#utility.yul\":4704:4716   */\n      add\n        /* \"#utility.yul\":4697:4716   */\n      swap1\n      pop\n        /* \"#utility.yul\":4356:4722   */\n      swap2\n      swap1\n      pop\n      jump\t// out\n        /* \"#utility.yul\":4810:6557   */\n    tag_161:\n        /* \"#utility.yul\":4940:4943   */\n      0x00\n        /* \"#utility.yul\":4976:4980   */\n      0xc0\n        /* \"#utility.yul\":4971:4974   */\n      dup4\n        /* \"#utility.yul\":4967:4981   */\n      add\n        /* \"#utility.yul\":5007:5008   */\n      0x00\n        /* \"#utility.yul\":5080:5084   */\n      dup1\n        /* \"#utility.yul\":5073:5078   */\n      dup5\n        /* \"#utility.yul\":5069:5085   */\n      add\n        /* \"#utility.yul\":5063:5086   */\n      sload\n        /* \"#utility.yul\":5050:5086   */\n      swap1\n      pop\n        /* \"#utility.yul\":5119:5174   */\n      tag_163\n        /* \"#utility.yul\":5164:5173   */\n      dup2\n        /* \"#utility.yul\":5119:5174   */\n      tag_164\n      jump\t// in\n    tag_163:\n        /* \"#utility.yul\":5187:5250   */\n      tag_165\n        /* \"#utility.yul\":5244:5248   */\n      0x00\n        /* \"#utility.yul\":5239:5242   */\n      dup8\n        /* \"#utility.yul\":5235:5249   */\n      add\n        /* \"#utility.yul\":5221:5233   */\n      dup3\n        /* \"#utility.yul\":5187:5250   */\n      tag_166\n      jump\t// in\n    tag_165:\n        /* \"#utility.yul\":5018:5260   */\n      pop\n        /* \"#utility.yul\":5336:5340   */\n      0x01\n        /* \"#utility.yul\":5329:5334   */\n      dup5\n        /* \"#utility.yul\":5325:5341   */\n      add\n        /* \"#utility.yul\":5388:5391   */\n      dup6\n        /* \"#utility.yul\":5382:5386   */\n      dup4\n        /* \"#utility.yul\":5378:5392   */\n      sub\n        /* \"#utility.yul\":5371:5375   */\n      0x20\n        /* \"#utility.yul\":5366:5369   */\n      dup8\n        /* \"#utility.yul\":5362:5376   */\n      add\n        /* \"#utility.yul\":5355:5393   */\n      mstore\n        /* \"#utility.yul\":5414:5484   */\n      tag_167\n        /* \"#utility.yul\":5479:5483   */\n      dup4\n        /* \"#utility.yul\":5465:5477   */\n      dup3\n        /* \"#utility.yul\":5414:5484   */\n      tag_138\n      jump\t// in\n    tag_167:\n        /* \"#utility.yul\":5406:5484   */\n      swap3\n      pop\n        /* \"#utility.yul\":5270:5495   */\n      pop\n        /* \"#utility.yul\":5575:5579   */\n      0x02\n        /* \"#utility.yul\":5568:5573   */\n      dup5\n        /* \"#utility.yul\":5564:5580   */\n      add\n        /* \"#utility.yul\":5558:5581   */\n      sload\n        /* \"#utility.yul\":5545:5581   */\n      swap1\n      pop\n        /* \"#utility.yul\":5614:5669   */\n      tag_168\n        /* \"#utility.yul\":5659:5668   */\n      dup2\n        /* \"#utility.yul\":5614:5669   */\n      tag_164\n      jump\t// in\n    tag_168:\n        /* \"#utility.yul\":5682:5745   */\n      tag_169\n        /* \"#utility.yul\":5739:5743   */\n      0x40\n        /* \"#utility.yul\":5734:5737   */\n      dup8\n        /* \"#utility.yul\":5730:5744   */\n      add\n        /* \"#utility.yul\":5716:5728   */\n      dup3\n        /* \"#utility.yul\":5682:5745   */\n      tag_166\n      jump\t// in\n    tag_169:\n        /* \"#utility.yul\":5505:5755   */\n      pop\n        /* \"#utility.yul\":5834:5838   */\n      0x03\n        /* \"#utility.yul\":5827:5832   */\n      dup5\n        /* \"#utility.yul\":5823:5839   */\n      add\n        /* \"#utility.yul\":5817:5840   */\n      sload\n        /* \"#utility.yul\":5804:5840   */\n      swap1\n      pop\n        /* \"#utility.yul\":5873:5928   */\n      tag_170\n        /* \"#utility.yul\":5918:5927   */\n      dup2\n        /* \"#utility.yul\":5873:5928   */\n      tag_164\n      jump\t// in\n    tag_170:\n        /* \"#utility.yul\":5941:6004   */\n      tag_171\n        /* \"#utility.yul\":5998:6002   */\n      0x60\n        /* \"#utility.yul\":5993:5996   */\n      dup8\n        /* \"#utility.yul\":5989:6003   */\n      add\n        /* \"#utility.yul\":5975:5987   */\n      dup3\n        /* \"#utility.yul\":5941:6004   */\n      tag_166\n      jump\t// in\n    tag_171:\n        /* \"#utility.yul\":5765:6014   */\n      pop\n        /* \"#utility.yul\":6093:6097   */\n      0x04\n        /* \"#utility.yul\":6086:6091   */\n      dup5\n        /* \"#utility.yul\":6082:6098   */\n      add\n        /* \"#utility.yul\":6076:6099   */\n      sload\n        /* \"#utility.yul\":6063:6099   */\n      swap1\n      pop\n        /* \"#utility.yul\":6132:6187   */\n      tag_172\n        /* \"#utility.yul\":6177:6186   */\n      dup2\n        /* \"#utility.yul\":6132:6187   */\n      tag_164\n      jump\t// in\n    tag_172:\n        /* \"#utility.yul\":6200:6263   */\n      tag_173\n        /* \"#utility.yul\":6257:6261   */\n      0x80\n        /* \"#utility.yul\":6252:6255   */\n      dup8\n        /* \"#utility.yul\":6248:6262   */\n      add\n        /* \"#utility.yul\":6234:6246   */\n      dup3\n        /* \"#utility.yul\":6200:6263   */\n      tag_166\n      jump\t// in\n    tag_173:\n        /* \"#utility.yul\":6024:6273   */\n      pop\n        /* \"#utility.yul\":6350:6354   */\n      0x05\n        /* \"#utility.yul\":6343:6348   */\n      dup5\n        /* \"#utility.yul\":6339:6355   */\n      add\n        /* \"#utility.yul\":6333:6356   */\n      sload\n        /* \"#utility.yul\":6320:6356   */\n      swap1\n      pop\n        /* \"#utility.yul\":6389:6444   */\n      tag_174\n        /* \"#utility.yul\":6434:6443   */\n      dup2\n        /* \"#utility.yul\":6389:6444   */\n      tag_175\n      jump\t// in\n    tag_174:\n        /* \"#utility.yul\":6457:6520   */\n      tag_176\n        /* \"#utility.yul\":6514:6518   */\n      0xa0\n        /* \"#utility.yul\":6509:6512   */\n      dup8\n        /* \"#utility.yul\":6505:6519   */\n      add\n        /* \"#utility.yul\":6491:6503   */\n      dup3\n        /* \"#utility.yul\":6457:6520   */\n      tag_121\n      jump\t// in\n    tag_176:\n        /* \"#utility.yul\":6283:6530   */\n      pop\n        /* \"#utility.yul\":6547:6551   */\n      dup2\n        /* \"#utility.yul\":6540:6551   */\n      swap3\n      pop\n        /* \"#utility.yul\":4945:6557   */\n      pop\n      pop\n        /* \"#utility.yul\":4810:6557   */\n      swap3\n      swap2\n      pop\n      pop\n      jump\t// out\n        /* \"#utility.yul\":6563:6671   */\n    tag_166:\n        /* \"#utility.yul\":6640:6664   */\n      tag_178\n        /* \"#utility.yul\":6658:6663   */\n      dup2\n        /* \"#utility.yul\":6640:6664   */\n      tag_179\n      jump\t// in\n    tag_178:\n        /* \"#utility.yul\":6635:6638   */\n      dup3\n        /* \"#utility.yul\":6628:6665   */\n      mstore\n        /* \"#utility.yul\":6563:6671   */\n      pop\n      pop\n      jump\t// out\n        /* \"#utility.yul\":6677:6795   */\n    tag_180:\n        /* \"#utility.yul\":6764:6788   */\n      tag_182\n        /* \"#utility.yul\":6782:6787   */\n      dup2\n        /* \"#utility.yul\":6764:6788   */\n      tag_179\n      jump\t// in\n    tag_182:\n        /* \"#utility.yul\":6759:6762   */\n      dup3\n        /* \"#utility.yul\":6752:6789   */\n      mstore\n        /* \"#utility.yul\":6677:6795   */\n      pop\n      pop\n      jump\t// out\n        /* \"#utility.yul\":6801:7023   */\n    tag_11:\n        /* \"#utility.yul\":6894:6898   */\n      0x00\n        /* \"#utility.yul\":6932:6934   */\n      0x20\n        /* \"#utility.yul\":6921:6930   */\n      dup3\n        /* \"#utility.yul\":6917:6935   */\n      add\n        /* \"#utility.yul\":6909:6935   */\n      swap1\n      pop\n        /* \"#utility.yul\":6945:7016   */\n      tag_184\n        /* \"#utility.yul\":7013:7014   */\n      0x00\n        /* \"#utility.yul\":7002:7011   */\n      dup4\n        /* \"#utility.yul\":6998:7015   */\n      add\n        /* \"#utility.yul\":6989:6995   */\n      dup5\n        /* \"#utility.yul\":6945:7016   */\n      tag_125\n      jump\t// in\n    tag_184:\n        /* \"#utility.yul\":6801:7023   */\n      swap3\n      swap2\n      pop\n      pop\n      jump\t// out\n        /* \"#utility.yul\":7029:7471   */\n    tag_43:\n        /* \"#utility.yul\":7178:7182   */\n      0x00\n        /* \"#utility.yul\":7216:7218   */\n      0x60\n        /* \"#utility.yul\":7205:7214   */\n      dup3\n        /* \"#utility.yul\":7201:7219   */\n      add\n        /* \"#utility.yul\":7193:7219   */\n      swap1\n      pop\n        /* \"#utility.yul\":7229:7300   */\n      tag_186\n        /* \"#utility.yul\":7297:7298   */\n      0x00\n        /* \"#utility.yul\":7286:7295   */\n      dup4\n        /* \"#utility.yul\":7282:7299   */\n      add\n        /* \"#utility.yul\":7273:7279   */\n      dup7\n        /* \"#utility.yul\":7229:7300   */\n      tag_125\n      jump\t// in\n    tag_186:\n        /* \"#utility.yul\":7310:7382   */\n      tag_187\n        /* \"#utility.yul\":7378:7380   */\n      0x20\n        /* \"#utility.yul\":7367:7376   */\n      dup4\n        /* \"#utility.yul\":7363:7381   */\n      add\n        /* \"#utility.yul\":7354:7360   */\n      dup6\n        /* \"#utility.yul\":7310:7382   */\n      tag_125\n      jump\t// in\n    tag_187:\n        /* \"#utility.yul\":7392:7464   */\n      tag_188\n        /* \"#utility.yul\":7460:7462   */\n      0x40\n        /* \"#utility.yul\":7449:7458   */\n      dup4\n        /* \"#utility.yul\":7445:7463   */\n      add\n        /* \"#utility.yul\":7436:7442   */\n      dup5\n        /* \"#utility.yul\":7392:7464   */\n      tag_180\n      jump\t// in\n    tag_188:\n        /* \"#utility.yul\":7029:7471   */\n      swap5\n      swap4\n      pop\n      pop\n      pop\n      pop\n      jump\t// out\n        /* \"#utility.yul\":7477:7896   */\n    tag_41:\n        /* \"#utility.yul\":7643:7647   */\n      0x00\n        /* \"#utility.yul\":7681:7683   */\n      0x20\n        /* \"#utility.yul\":7670:7679   */\n      dup3\n        /* \"#utility.yul\":7666:7684   */\n      add\n        /* \"#utility.yul\":7658:7684   */\n      swap1\n      pop\n        /* \"#utility.yul\":7730:7739   */\n      dup2\n        /* \"#utility.yul\":7724:7728   */\n      dup2\n        /* \"#utility.yul\":7720:7740   */\n      sub\n        /* \"#utility.yul\":7716:7717   */\n      0x00\n        /* \"#utility.yul\":7705:7714   */\n      dup4\n        /* \"#utility.yul\":7701:7718   */\n      add\n        /* \"#utility.yul\":7694:7741   */\n      mstore\n        /* \"#utility.yul\":7758:7889   */\n      tag_190\n        /* \"#utility.yul\":7884:7888   */\n      dup2\n        /* \"#utility.yul\":7758:7889   */\n      tag_151\n      jump\t// in\n    tag_190:\n        /* \"#utility.yul\":7750:7889   */\n      swap1\n      pop\n        /* \"#utility.yul\":7477:7896   */\n      swap2\n      swap1\n      pop\n      jump\t// out\n        /* \"#utility.yul\":7902:8321   */\n    tag_38:\n        /* \"#utility.yul\":8068:8072   */\n      0x00\n        /* \"#utility.yul\":8106:8108   */\n      0x20\n        /* \"#utility.yul\":8095:8104   */\n      dup3\n        /* \"#utility.yul\":8091:8109   */\n      add\n        /* \"#utility.yul\":8083:8109   */\n      swap1\n      pop\n        /* \"#utility.yul\":8155:8164   */\n      dup2\n        /* \"#utility.yul\":8149:8153   */\n      dup2\n        /* \"#utility.yul\":8145:8165   */\n      sub\n        /* \"#utility.yul\":8141:8142   */\n      0x00\n        /* \"#utility.yul\":8130:8139   */\n      dup4\n        /* \"#utility.yul\":8126:8143   */\n      add\n        /* \"#utility.yul\":8119:8166   */\n      mstore\n        /* \"#utility.yul\":8183:8314   */\n      tag_192\n        /* \"#utility.yul\":8309:8313   */\n      dup2\n        /* \"#utility.yul\":8183:8314   */\n      tag_156\n      jump\t// in\n    tag_192:\n        /* \"#utility.yul\":8175:8314   */\n      swap1\n      pop\n        /* \"#utility.yul\":7902:8321   */\n      swap2\n      swap1\n      pop\n      jump\t// out\n        /* \"#utility.yul\":8327:8722   */\n    tag_56:\n        /* \"#utility.yul\":8481:8485   */\n      0x00\n        /* \"#utility.yul\":8519:8521   */\n      0x20\n        /* \"#utility.yul\":8508:8517   */\n      dup3\n        /* \"#utility.yul\":8504:8522   */\n      add\n        /* \"#utility.yul\":8496:8522   */\n      swap1\n      pop\n        /* \"#utility.yul\":8568:8577   */\n      dup2\n        /* \"#utility.yul\":8562:8566   */\n      dup2\n        /* \"#utility.yul\":8558:8578   */\n      sub\n        /* \"#utility.yul\":8554:8555   */\n      0x00\n        /* \"#utility.yul\":8543:8552   */\n      dup4\n        /* \"#utility.yul\":8539:8556   */\n      add\n        /* \"#utility.yul\":8532:8579   */\n      mstore\n        /* \"#utility.yul\":8596:8715   */\n      tag_194\n        /* \"#utility.yul\":8710:8714   */\n      dup2\n        /* \"#utility.yul\":8701:8707   */\n      dup5\n        /* \"#utility.yul\":8596:8715   */\n      tag_161\n      jump\t// in\n    tag_194:\n        /* \"#utility.yul\":8588:8715   */\n      swap1\n      pop\n        /* \"#utility.yul\":8327:8722   */\n      swap3\n      swap2\n      pop\n      pop\n      jump\t// out\n        /* \"#utility.yul\":8728:8950   */\n    tag_21:\n        /* \"#utility.yul\":8821:8825   */\n      0x00\n        /* \"#utility.yul\":8859:8861   */\n      0x20\n        /* \"#utility.yul\":8848:8857   */\n      dup3\n        /* \"#utility.yul\":8844:8862   */\n      add\n        /* \"#utility.yul\":8836:8862   */\n      swap1\n      pop\n        /* \"#utility.yul\":8872:8943   */\n      tag_196\n        /* \"#utility.yul\":8940:8941   */\n      0x00\n        /* \"#utility.yul\":8929:8938   */\n      dup4\n        /* \"#utility.yul\":8925:8942   */\n      add\n        /* \"#utility.yul\":8916:8922   */\n      dup5\n        /* \"#utility.yul\":8872:8943   */\n      tag_180\n      jump\t// in\n    tag_196:\n        /* \"#utility.yul\":8728:8950   */\n      swap3\n      swap2\n      pop\n      pop\n      jump\t// out\n        /* \"#utility.yul\":8956:9822   */\n    tag_17:\n        /* \"#utility.yul\":9209:9213   */\n      0x00\n        /* \"#utility.yul\":9247:9250   */\n      0xc0\n        /* \"#utility.yul\":9236:9245   */\n      dup3\n        /* \"#utility.yul\":9232:9251   */\n      add\n        /* \"#utility.yul\":9224:9251   */\n      swap1\n      pop\n        /* \"#utility.yul\":9261:9332   */\n      tag_198\n        /* \"#utility.yul\":9329:9330   */\n      0x00\n        /* \"#utility.yul\":9318:9327   */\n      dup4\n        /* \"#utility.yul\":9314:9331   */\n      add\n        /* \"#utility.yul\":9305:9311   */\n      dup10\n        /* \"#utility.yul\":9261:9332   */\n      tag_180\n      jump\t// in\n    tag_198:\n        /* \"#utility.yul\":9379:9388   */\n      dup2\n        /* \"#utility.yul\":9373:9377   */\n      dup2\n        /* \"#utility.yul\":9369:9389   */\n      sub\n        /* \"#utility.yul\":9364:9366   */\n      0x20\n        /* \"#utility.yul\":9353:9362   */\n      dup4\n        /* \"#utility.yul\":9349:9367   */\n      add\n        /* \"#utility.yul\":9342:9390   */\n      mstore\n        /* \"#utility.yul\":9407:9485   */\n      tag_199\n        /* \"#utility.yul\":9480:9484   */\n      dup2\n        /* \"#utility.yul\":9471:9477   */\n      dup9\n        /* \"#utility.yul\":9407:9485   */\n      tag_128\n      jump\t// in\n    tag_199:\n        /* \"#utility.yul\":9399:9485   */\n      swap1\n      pop\n        /* \"#utility.yul\":9495:9567   */\n      tag_200\n        /* \"#utility.yul\":9563:9565   */\n      0x40\n        /* \"#utility.yul\":9552:9561   */\n      dup4\n        /* \"#utility.yul\":9548:9566   */\n      add\n        /* \"#utility.yul\":9539:9545   */\n      dup8\n        /* \"#utility.yul\":9495:9567   */\n      tag_180\n      jump\t// in\n    tag_200:\n        /* \"#utility.yul\":9577:9649   */\n      tag_201\n        /* \"#utility.yul\":9645:9647   */\n      0x60\n        /* \"#utility.yul\":9634:9643   */\n      dup4\n        /* \"#utility.yul\":9630:9648   */\n      add\n        /* \"#utility.yul\":9621:9627   */\n      dup7\n        /* \"#utility.yul\":9577:9649   */\n      tag_180\n      jump\t// in\n    tag_201:\n        /* \"#utility.yul\":9659:9732   */\n      tag_202\n        /* \"#utility.yul\":9727:9730   */\n      0x80\n        /* \"#utility.yul\":9716:9725   */\n      dup4\n        /* \"#utility.yul\":9712:9731   */\n      add\n        /* \"#utility.yul\":9703:9709   */\n      dup6\n        /* \"#utility.yul\":9659:9732   */\n      tag_180\n      jump\t// in\n    tag_202:\n        /* \"#utility.yul\":9742:9815   */\n      tag_203\n        /* \"#utility.yul\":9810:9813   */\n      0xa0\n        /* \"#utility.yul\":9799:9808   */\n      dup4\n        /* \"#utility.yul\":9795:9814   */\n      add\n        /* \"#utility.yul\":9786:9792   */\n      dup5\n        /* \"#utility.yul\":9742:9815   */\n      tag_125\n      jump\t// in\n    tag_203:\n        /* \"#utility.yul\":8956:9822   */\n      swap8\n      swap7\n      pop\n      pop\n      pop\n      pop\n      pop\n      pop\n      pop\n      jump\t// out\n        /* \"#utility.yul\":9828:9957   */\n    tag_83:\n        /* \"#utility.yul\":9862:9868   */\n      0x00\n        /* \"#utility.yul\":9889:9909   */\n      tag_205\n      tag_206\n      jump\t// in\n    tag_205:\n        /* \"#utility.yul\":9879:9909   */\n      swap1\n      pop\n        /* \"#utility.yul\":9918:9951   */\n      tag_207\n        /* \"#utility.yul\":9946:9950   */\n      dup3\n        /* \"#utility.yul\":9938:9944   */\n      dup3\n        /* \"#utility.yul\":9918:9951   */\n      tag_208\n      jump\t// in\n    tag_207:\n        /* \"#utility.yul\":9828:9957   */\n      swap2\n      swap1\n      pop\n      jump\t// out\n        /* \"#utility.yul\":9963:10038   */\n    tag_206:\n        /* \"#utility.yul\":9996:10002   */\n      0x00\n        /* \"#utility.yul\":10029:10031   */\n      0x40\n        /* \"#utility.yul\":10023:10032   */\n      mload\n        /* \"#utility.yul\":10013:10032   */\n      swap1\n      pop\n        /* \"#utility.yul\":9963:10038   */\n      swap1\n      jump\t// out\n        /* \"#utility.yul\":10044:10352   */\n    tag_82:\n        /* \"#utility.yul\":10106:10110   */\n      0x00\n        /* \"#utility.yul\":10196:10214   */\n      0xffffffffffffffff\n        /* \"#utility.yul\":10188:10194   */\n      dup3\n        /* \"#utility.yul\":10185:10215   */\n      gt\n        /* \"#utility.yul\":10182:10238   */\n      iszero\n      tag_211\n      jumpi\n        /* \"#utility.yul\":10218:10236   */\n      tag_212\n      tag_213\n      jump\t// in\n    tag_212:\n        /* \"#utility.yul\":10182:10238   */\n    tag_211:\n        /* \"#utility.yul\":10256:10285   */\n      tag_214\n        /* \"#utility.yul\":10278:10284   */\n      dup3\n        /* \"#utility.yul\":10256:10285   */\n      tag_137\n      jump\t// in\n    tag_214:\n        /* \"#utility.yul\":10248:10285   */\n      swap1\n      pop\n        /* \"#utility.yul\":10340:10344   */\n      0x20\n        /* \"#utility.yul\":10334:10338   */\n      dup2\n        /* \"#utility.yul\":10330:10345   */\n      add\n        /* \"#utility.yul\":10322:10345   */\n      swap1\n      pop\n        /* \"#utility.yul\":10044:10352   */\n      swap2\n      swap1\n      pop\n      jump\t// out\n        /* \"#utility.yul\":10358:10499   */\n    tag_147:\n        /* \"#utility.yul\":10407:10411   */\n      0x00\n        /* \"#utility.yul\":10430:10433   */\n      dup2\n        /* \"#utility.yul\":10422:10433   */\n      swap1\n      pop\n        /* \"#utility.yul\":10453:10456   */\n      dup2\n        /* \"#utility.yul\":10450:10451   */\n      0x00\n        /* \"#utility.yul\":10443:10457   */\n      mstore\n        /* \"#utility.yul\":10487:10491   */\n      0x20\n        /* \"#utility.yul\":10484:10485   */\n      0x00\n        /* \"#utility.yul\":10474:10492   */\n      keccak256\n        /* \"#utility.yul\":10466:10492   */\n      swap1\n      pop\n        /* \"#utility.yul\":10358:10499   */\n      swap2\n      swap1\n      pop\n      jump\t// out\n        /* \"#utility.yul\":10505:10604   */\n    tag_131:\n        /* \"#utility.yul\":10557:10563   */\n      0x00\n        /* \"#utility.yul\":10591:10596   */\n      dup2\n        /* \"#utility.yul\":10585:10597   */\n      mload\n        /* \"#utility.yul\":10575:10597   */\n      swap1\n      pop\n        /* \"#utility.yul\":10505:10604   */\n      swap2\n      swap1\n      pop\n      jump\t// out\n        /* \"#utility.yul\":10610:10769   */\n    tag_142:\n        /* \"#utility.yul\":10684:10695   */\n      0x00\n        /* \"#utility.yul\":10718:10724   */\n      dup3\n        /* \"#utility.yul\":10713:10716   */\n      dup3\n        /* \"#utility.yul\":10706:10725   */\n      mstore\n        /* \"#utility.yul\":10758:10762   */\n      0x20\n        /* \"#utility.yul\":10753:10756   */\n      dup3\n        /* \"#utility.yul\":10749:10763   */\n      add\n        /* \"#utility.yul\":10734:10763   */\n      swap1\n      pop\n        /* \"#utility.yul\":10610:10769   */\n      swap3\n      swap2\n      pop\n      pop\n      jump\t// out\n        /* \"#utility.yul\":10775:10944   */\n    tag_133:\n        /* \"#utility.yul\":10859:10870   */\n      0x00\n        /* \"#utility.yul\":10893:10899   */\n      dup3\n        /* \"#utility.yul\":10888:10891   */\n      dup3\n        /* \"#utility.yul\":10881:10900   */\n      mstore\n        /* \"#utility.yul\":10933:10937   */\n      0x20\n        /* \"#utility.yul\":10928:10931   */\n      dup3\n        /* \"#utility.yul\":10924:10938   */\n      add\n        /* \"#utility.yul\":10909:10938   */\n      swap1\n      pop\n        /* \"#utility.yul\":10775:10944   */\n      swap3\n      swap2\n      pop\n      pop\n      jump\t// out\n        /* \"#utility.yul\":10950:11089   */\n    tag_219:\n        /* \"#utility.yul\":11000:11007   */\n      0x00\n        /* \"#utility.yul\":11040:11082   */\n      0xffffffffffffffffffffffffffffffffffffffff\n        /* \"#utility.yul\":11033:11038   */\n      dup3\n        /* \"#utility.yul\":11029:11083   */\n      and\n        /* \"#utility.yul\":11018:11083   */\n      swap1\n      pop\n        /* \"#utility.yul\":10950:11089   */\n      swap2\n      swap1\n      pop\n      jump\t// out\n        /* \"#utility.yul\":11095:11185   */\n    tag_221:\n        /* \"#utility.yul\":11145:11152   */\n      0x00\n        /* \"#utility.yul\":11174:11179   */\n      dup2\n        /* \"#utility.yul\":11163:11179   */\n      swap1\n      pop\n        /* \"#utility.yul\":11095:11185   */\n      swap2\n      swap1\n      pop\n      jump\t// out\n        /* \"#utility.yul\":11191:11287   */\n    tag_124:\n        /* \"#utility.yul\":11228:11235   */\n      0x00\n        /* \"#utility.yul\":11257:11281   */\n      tag_224\n        /* \"#utility.yul\":11275:11280   */\n      dup3\n        /* \"#utility.yul\":11257:11281   */\n      tag_225\n      jump\t// in\n    tag_224:\n        /* \"#utility.yul\":11246:11281   */\n      swap1\n      pop\n        /* \"#utility.yul\":11191:11287   */\n      swap2\n      swap1\n      pop\n      jump\t// out\n        /* \"#utility.yul\":11293:11383   */\n    tag_226:\n        /* \"#utility.yul\":11327:11334   */\n      0x00\n        /* \"#utility.yul\":11370:11375   */\n      dup2\n        /* \"#utility.yul\":11363:11376   */\n      iszero\n        /* \"#utility.yul\":11356:11377   */\n      iszero\n        /* \"#utility.yul\":11345:11377   */\n      swap1\n      pop\n        /* \"#utility.yul\":11293:11383   */\n      swap2\n      swap1\n      pop\n      jump\t// out\n        /* \"#utility.yul\":11389:11515   */\n    tag_225:\n        /* \"#utility.yul\":11426:11433   */\n      0x00\n        /* \"#utility.yul\":11466:11508   */\n      0xffffffffffffffffffffffffffffffffffffffff\n        /* \"#utility.yul\":11459:11464   */\n      dup3\n        /* \"#utility.yul\":11455:11509   */\n      and\n        /* \"#utility.yul\":11444:11509   */\n      swap1\n      pop\n        /* \"#utility.yul\":11389:11515   */\n      swap2\n      swap1\n      pop\n      jump\t// out\n        /* \"#utility.yul\":11521:11598   */\n    tag_179:\n        /* \"#utility.yul\":11558:11565   */\n      0x00\n        /* \"#utility.yul\":11587:11592   */\n      dup2\n        /* \"#utility.yul\":11576:11592   */\n      swap1\n      pop\n        /* \"#utility.yul\":11521:11598   */\n      swap2\n      swap1\n      pop\n      jump\t// out\n        /* \"#utility.yul\":11604:11758   */\n    tag_88:\n        /* \"#utility.yul\":11688:11694   */\n      dup3\n        /* \"#utility.yul\":11683:11686   */\n      dup2\n        /* \"#utility.yul\":11678:11681   */\n      dup4\n        /* \"#utility.yul\":11665:11695   */\n      calldatacopy\n        /* \"#utility.yul\":11750:11751   */\n      0x00\n        /* \"#utility.yul\":11741:11747   */\n      dup4\n        /* \"#utility.yul\":11736:11739   */\n      dup4\n        /* \"#utility.yul\":11732:11748   */\n      add\n        /* \"#utility.yul\":11725:11752   */\n      mstore\n        /* \"#utility.yul\":11604:11758   */\n      pop\n      pop\n      pop\n      jump\t// out\n        /* \"#utility.yul\":11764:12071   */\n    tag_135:\n        /* \"#utility.yul\":11832:11833   */\n      0x00\n        /* \"#utility.yul\":11842:11955   */\n    tag_232:\n        /* \"#utility.yul\":11856:11862   */\n      dup4\n        /* \"#utility.yul\":11853:11854   */\n      dup2\n        /* \"#utility.yul\":11850:11863   */\n      lt\n        /* \"#utility.yul\":11842:11955   */\n      iszero\n      tag_234\n      jumpi\n        /* \"#utility.yul\":11941:11942   */\n      dup1\n        /* \"#utility.yul\":11936:11939   */\n      dup3\n        /* \"#utility.yul\":11932:11943   */\n      add\n        /* \"#utility.yul\":11926:11944   */\n      mload\n        /* \"#utility.yul\":11922:11923   */\n      dup2\n        /* \"#utility.yul\":11917:11920   */\n      dup5\n        /* \"#utility.yul\":11913:11924   */\n      add\n        /* \"#utility.yul\":11906:11945   */\n      mstore\n        /* \"#utility.yul\":11878:11880   */\n      0x20\n        /* \"#utility.yul\":11875:11876   */\n      dup2\n        /* \"#utility.yul\":11871:11881   */\n      add\n        /* \"#utility.yul\":11866:11881   */\n      swap1\n      pop\n        /* \"#utility.yul\":11842:11955   */\n      jump(tag_232)\n    tag_234:\n        /* \"#utility.yul\":11973:11979   */\n      dup4\n        /* \"#utility.yul\":11970:11971   */\n      dup2\n        /* \"#utility.yul\":11967:11980   */\n      gt\n        /* \"#utility.yul\":11964:12065   */\n      iszero\n      tag_235\n      jumpi\n        /* \"#utility.yul\":12053:12054   */\n      0x00\n        /* \"#utility.yul\":12044:12050   */\n      dup5\n        /* \"#utility.yul\":12039:12042   */\n      dup5\n        /* \"#utility.yul\":12035:12051   */\n      add\n        /* \"#utility.yul\":12028:12055   */\n      mstore\n        /* \"#utility.yul\":11964:12065   */\n    tag_235:\n        /* \"#utility.yul\":11813:12071   */\n      pop\n        /* \"#utility.yul\":11764:12071   */\n      pop\n      pop\n      pop\n      jump\t// out\n        /* \"#utility.yul\":12077:12397   */\n    tag_30:\n        /* \"#utility.yul\":12121:12127   */\n      0x00\n        /* \"#utility.yul\":12158:12159   */\n      0x02\n        /* \"#utility.yul\":12152:12156   */\n      dup3\n        /* \"#utility.yul\":12148:12160   */\n      div\n        /* \"#utility.yul\":12138:12160   */\n      swap1\n      pop\n        /* \"#utility.yul\":12205:12206   */\n      0x01\n        /* \"#utility.yul\":12199:12203   */\n      dup3\n        /* \"#utility.yul\":12195:12207   */\n      and\n        /* \"#utility.yul\":12226:12244   */\n      dup1\n        /* \"#utility.yul\":12216:12297   */\n      tag_237\n      jumpi\n        /* \"#utility.yul\":12282:12286   */\n      0x7f\n        /* \"#utility.yul\":12274:12280   */\n      dup3\n        /* \"#utility.yul\":12270:12287   */\n      and\n        /* \"#utility.yul\":12260:12287   */\n      swap2\n      pop\n        /* \"#utility.yul\":12216:12297   */\n    tag_237:\n        /* \"#utility.yul\":12344:12346   */\n      0x20\n        /* \"#utility.yul\":12336:12342   */\n      dup3\n        /* \"#utility.yul\":12333:12347   */\n      lt\n        /* \"#utility.yul\":12313:12331   */\n      dup2\n        /* \"#utility.yul\":12310:12348   */\n      eq\n        /* \"#utility.yul\":12307:12391   */\n      iszero\n      tag_238\n      jumpi\n        /* \"#utility.yul\":12363:12381   */\n      tag_239\n      tag_240\n      jump\t// in\n    tag_239:\n        /* \"#utility.yul\":12307:12391   */\n    tag_238:\n        /* \"#utility.yul\":12128:12397   */\n      pop\n        /* \"#utility.yul\":12077:12397   */\n      swap2\n      swap1\n      pop\n      jump\t// out\n        /* \"#utility.yul\":12403:12569   */\n    tag_175:\n        /* \"#utility.yul\":12472:12477   */\n      0x00\n        /* \"#utility.yul\":12497:12563   */\n      tag_242\n        /* \"#utility.yul\":12528:12562   */\n      tag_243\n        /* \"#utility.yul\":12551:12561   */\n      dup4\n        /* \"#utility.yul\":12528:12562   */\n      tag_244\n      jump\t// in\n    tag_243:\n        /* \"#utility.yul\":12497:12563   */\n      tag_219\n      jump\t// in\n    tag_242:\n        /* \"#utility.yul\":12488:12563   */\n      swap1\n      pop\n        /* \"#utility.yul\":12403:12569   */\n      swap2\n      swap1\n      pop\n      jump\t// out\n        /* \"#utility.yul\":12575:12741   */\n    tag_164:\n        /* \"#utility.yul\":12644:12649   */\n      0x00\n        /* \"#utility.yul\":12669:12735   */\n      tag_246\n        /* \"#utility.yul\":12700:12734   */\n      tag_247\n        /* \"#utility.yul\":12723:12733   */\n      dup4\n        /* \"#utility.yul\":12700:12734   */\n      tag_244\n      jump\t// in\n    tag_247:\n        /* \"#utility.yul\":12669:12735   */\n      tag_221\n      jump\t// in\n    tag_246:\n        /* \"#utility.yul\":12660:12735   */\n      swap1\n      pop\n        /* \"#utility.yul\":12575:12741   */\n      swap2\n      swap1\n      pop\n      jump\t// out\n        /* \"#utility.yul\":12747:13028   */\n    tag_208:\n        /* \"#utility.yul\":12830:12857   */\n      tag_249\n        /* \"#utility.yul\":12852:12856   */\n      dup3\n        /* \"#utility.yul\":12830:12857   */\n      tag_137\n      jump\t// in\n    tag_249:\n        /* \"#utility.yul\":12822:12828   */\n      dup2\n        /* \"#utility.yul\":12818:12858   */\n      add\n        /* \"#utility.yul\":12960:12966   */\n      dup2\n        /* \"#utility.yul\":12948:12958   */\n      dup2\n        /* \"#utility.yul\":12945:12967   */\n      lt\n        /* \"#utility.yul\":12924:12942   */\n      0xffffffffffffffff\n        /* \"#utility.yul\":12912:12922   */\n      dup3\n        /* \"#utility.yul\":12909:12943   */\n      gt\n        /* \"#utility.yul\":12906:12968   */\n      or\n        /* \"#utility.yul\":12903:12991   */\n      iszero\n      tag_250\n      jumpi\n        /* \"#utility.yul\":12971:12989   */\n      tag_251\n      tag_213\n      jump\t// in\n    tag_251:\n        /* \"#utility.yul\":12903:12991   */\n    tag_250:\n        /* \"#utility.yul\":13011:13021   */\n      dup1\n        /* \"#utility.yul\":13007:13009   */\n      0x40\n        /* \"#utility.yul\":13000:13022   */\n      mstore\n        /* \"#utility.yul\":12790:13028   */\n      pop\n        /* \"#utility.yul\":12747:13028   */\n      pop\n      pop\n      jump\t// out\n        /* \"#utility.yul\":13034:13267   */\n    tag_50:\n        /* \"#utility.yul\":13073:13076   */\n      0x00\n        /* \"#utility.yul\":13096:13120   */\n      tag_253\n        /* \"#utility.yul\":13114:13119   */\n      dup3\n        /* \"#utility.yul\":13096:13120   */\n      tag_179\n      jump\t// in\n    tag_253:\n        /* \"#utility.yul\":13087:13120   */\n      swap2\n      pop\n        /* \"#utility.yul\":13142:13208   */\n      0xffffffffffffffffffffffffffffffffffffffffffffffffffffffffffffffff\n        /* \"#utility.yul\":13135:13140   */\n      dup3\n        /* \"#utility.yul\":13132:13209   */\n      eq\n        /* \"#utility.yul\":13129:13232   */\n      iszero\n      tag_254\n      jumpi\n        /* \"#utility.yul\":13212:13230   */\n      tag_255\n      tag_256\n      jump\t// in\n    tag_255:\n        /* \"#utility.yul\":13129:13232   */\n    tag_254:\n        /* \"#utility.yul\":13259:13260   */\n      0x01\n        /* \"#utility.yul\":13252:13257   */\n      dup3\n        /* \"#utility.yul\":13248:13261   */\n      add\n        /* \"#utility.yul\":13241:13261   */\n      swap1\n      pop\n        /* \"#utility.yul\":13034:13267   */\n      swap2\n      swap1\n      pop\n      jump\t// out\n        /* \"#utility.yul\":13273:13453   */\n    tag_256:\n        /* \"#utility.yul\":13321:13398   */\n      0x4e487b7100000000000000000000000000000000000000000000000000000000\n        /* \"#utility.yul\":13318:13319   */\n      0x00\n        /* \"#utility.yul\":13311:13399   */\n      mstore\n        /* \"#utility.yul\":13418:13422   */\n      0x11\n        /* \"#utility.yul\":13415:13416   */\n      0x04\n        /* \"#utility.yul\":13408:13423   */\n      mstore\n        /* \"#utility.yul\":13442:13446   */\n      0x24\n        /* \"#utility.yul\":13439:13440   */\n      0x00\n        /* \"#utility.yul\":13432:13447   */\n      revert\n        /* \"#utility.yul\":13459:13639   */\n    tag_240:\n        /* \"#utility.yul\":13507:13584   */\n      0x4e487b7100000000000000000000000000000000000000000000000000000000\n        /* \"#utility.yul\":13504:13505   */\n      0x00\n        /* \"#utility.yul\":13497:13585   */\n      mstore\n        /* \"#utility.yul\":13604:13608   */\n      0x22\n        /* \"#utility.yul\":13601:13602   */\n      0x04\n        /* \"#utility.yul\":13594:13609   */\n      mstore\n        /* \"#utility.yul\":13628:13632   */\n      0x24\n        /* \"#utility.yul\":13625:13626   */\n      0x00\n        /* \"#utility.yul\":13618:13633   */\n      revert\n        /* \"#utility.yul\":13645:13825   */\n    tag_213:\n        /* \"#utility.yul\":13693:13770   */\n      0x4e487b7100000000000000000000000000000000000000000000000000000000\n        /* \"#utility.yul\":13690:13691   */\n      0x00\n        /* \"#utility.yul\":13683:13771   */\n      mstore\n        /* \"#utility.yul\":13790:13794   */\n      0x41\n        /* \"#utility.yul\":13787:13788   */\n      0x04\n        /* \"#utility.yul\":13780:13795   */\n      mstore\n        /* \"#utility.yul\":13814:13818   */\n      0x24\n        /* \"#utility.yul\":13811:13812   */\n      0x00\n        /* \"#utility.yul\":13804:13819   */\n      revert\n        /* \"#utility.yul\":13831:13948   */\n    tag_97:\n        /* \"#utility.yul\":13940:13941   */\n      0x00\n        /* \"#utility.yul\":13937:13938   */\n      dup1\n        /* \"#utility.yul\":13930:13942   */\n      revert\n        /* \"#utility.yul\":13954:14071   */\n    tag_86:\n        /* \"#utility.yul\":14063:14064   */\n      0x00\n        /* \"#utility.yul\":14060:14061   */\n      dup1\n        /* \"#utility.yul\":14053:14065   */\n      revert\n        /* \"#utility.yul\":14077:14194   */\n    tag_113:\n        /* \"#utility.yul\":14186:14187   */\n      0x00\n        /* \"#utility.yul\":14183:14184   */\n      dup1\n        /* \"#utility.yul\":14176:14188   */\n      revert\n        /* \"#utility.yul\":14200:14317   */\n    tag_106:\n        /* \"#utility.yul\":14309:14310   */\n      0x00\n        /* \"#utility.yul\":14306:14307   */\n      dup1\n        /* \"#utility.yul\":14299:14311   */\n      revert\n        /* \"#utility.yul\":14323:14425   */\n    tag_137:\n        /* \"#utility.yul\":14364:14370   */\n      0x00\n        /* \"#utility.yul\":14415:14417   */\n      0x1f\n        /* \"#utility.yul\":14411:14418   */\n      not\n        /* \"#utility.yul\":14406:14408   */\n      0x1f\n        /* \"#utility.yul\":14399:14404   */\n      dup4\n        /* \"#utility.yul\":14395:14409   */\n      add\n        /* \"#utility.yul\":14391:14419   */\n      and\n        /* \"#utility.yul\":14381:14419   */\n      swap1\n      pop\n        /* \"#utility.yul\":14323:14425   */\n      swap2\n      swap1\n      pop\n      jump\t// out\n        /* \"#utility.yul\":14431:14533   */\n    tag_244:\n        /* \"#utility.yul\":14473:14481   */\n      0x00\n        /* \"#utility.yul\":14520:14525   */\n      dup2\n        /* \"#utility.yul\":14517:14518   */\n      0x00\n        /* \"#utility.yul\":14513:14526   */\n      shr\n        /* \"#utility.yul\":14492:14526   */\n      swap1\n      pop\n        /* \"#utility.yul\":14431:14533   */\n      swap2\n      swap1\n      pop\n      jump\t// out\n        /* \"#utility.yul\":14539:14759   */\n    tag_155:\n        /* \"#utility.yul\":14679:14713   */\n      0x53746172742074696d652063616e6e6f7420626520696e207468652070617374\n        /* \"#utility.yul\":14675:14676   */\n      0x00\n        /* \"#utility.yul\":14667:14673   */\n      dup3\n        /* \"#utility.yul\":14663:14677   */\n      add\n        /* \"#utility.yul\":14656:14714   */\n      mstore\n        /* \"#utility.yul\":14748:14751   */\n      0x2100000000000000000000000000000000000000000000000000000000000000\n        /* \"#utility.yul\":14743:14745   */\n      0x20\n        /* \"#utility.yul\":14735:14741   */\n      dup3\n        /* \"#utility.yul\":14731:14746   */\n      add\n        /* \"#utility.yul\":14724:14752   */\n      mstore\n        /* \"#utility.yul\":14539:14759   */\n      pop\n      jump\t// out\n        /* \"#utility.yul\":14765:14991   */\n    tag_160:\n        /* \"#utility.yul\":14905:14939   */\n      0x4d6178207469636b657473206e6565647320746f206265206772656174657220\n        /* \"#utility.yul\":14901:14902   */\n      0x00\n        /* \"#utility.yul\":14893:14899   */\n      dup3\n        /* \"#utility.yul\":14889:14903   */\n      add\n        /* \"#utility.yul\":14882:14940   */\n      mstore\n        /* \"#utility.yul\":14974:14983   */\n      0x7468616e20302100000000000000000000000000000000000000000000000000\n        /* \"#utility.yul\":14969:14971   */\n      0x20\n        /* \"#utility.yul\":14961:14967   */\n      dup3\n        /* \"#utility.yul\":14957:14972   */\n      add\n        /* \"#utility.yul\":14950:14984   */\n      mstore\n        /* \"#utility.yul\":14765:14991   */\n      pop\n      jump\t// out\n        /* \"#utility.yul\":14997:15113   */\n    tag_92:\n        /* \"#utility.yul\":15067:15088   */\n      tag_269\n        /* \"#utility.yul\":15082:15087   */\n      dup2\n        /* \"#utility.yul\":15067:15088   */\n      tag_226\n      jump\t// in\n    tag_269:\n        /* \"#utility.yul\":15060:15065   */\n      dup2\n        /* \"#utility.yul\":15057:15089   */\n      eq\n        /* \"#utility.yul\":15047:15107   */\n      tag_270\n      jumpi\n        /* \"#utility.yul\":15103:15104   */\n      0x00\n        /* \"#utility.yul\":15100:15101   */\n      dup1\n        /* \"#utility.yul\":15093:15105   */\n      revert\n        /* \"#utility.yul\":15047:15107   */\n    tag_270:\n        /* \"#utility.yul\":14997:15113   */\n      pop\n      jump\t// out\n        /* \"#utility.yul\":15119:15241   */\n    tag_102:\n        /* \"#utility.yul\":15192:15216   */\n      tag_272\n        /* \"#utility.yul\":15210:15215   */\n      dup2\n        /* \"#utility.yul\":15192:15216   */\n      tag_179\n      jump\t// in\n    tag_272:\n        /* \"#utility.yul\":15185:15190   */\n      dup2\n        /* \"#utility.yul\":15182:15217   */\n      eq\n        /* \"#utility.yul\":15172:15235   */\n      tag_273\n      jumpi\n        /* \"#utility.yul\":15231:15232   */\n      0x00\n        /* \"#utility.yul\":15228:15229   */\n      dup1\n        /* \"#utility.yul\":15221:15233   */\n      revert\n        /* \"#utility.yul\":15172:15235   */\n    tag_273:\n        /* \"#utility.yul\":15119:15241   */\n      pop\n      jump\t// out\n\n    auxdata: 0xa26469706673582212205943caf5d30bb7262b5981f0547a1e18315731f45488559fbff436b09f2059bc64736f6c63430008070033\n}\n",
				"bytecode": {
					"linkReferences": {},
					"object": "60806040523480156200001157600080fd5b50604051620011a5380380620011a58339818101604052810190620000379190620001a9565b600073ffffffffffffffffffffffffffffffffffffffff168273ffffffffffffffffffffffffffffffffffffffff161415620000aa576040517f08c379a0000000000000000000000000000000000000000000000000000000008152600401620000a19062000217565b60405180910390fd5b336000806101000a81548173ffffffffffffffffffffffffffffffffffffffff021916908373ffffffffffffffffffffffffffffffffffffffff16021790555081600160006101000a81548173ffffffffffffffffffffffffffffffffffffffff021916908373ffffffffffffffffffffffffffffffffffffffff1602179055508060028190555081600560006101000a81548173ffffffffffffffffffffffffffffffffffffffff021916908373ffffffffffffffffffffffffffffffffffffffff1602179055505050620002ea565b6000815190506200018c81620002b6565b92915050565b600081519050620001a381620002d0565b92915050565b60008060408385031215620001c357620001c262000288565b5b6000620001d3858286016200017b565b9250506020620001e68582860162000192565b9150509250929050565b6000620001ff601a8362000239565b91506200020c826200028d565b602082019050919050565b600060208201905081810360008301526200023281620001f0565b9050919050565b600082825260208201905092915050565b600062000257826200025e565b9050919050565b600073ffffffffffffffffffffffffffffffffffffffff82169050919050565b6000819050919050565b600080fd5b7f4552433230206164647265737320697320726571756972656421000000000000600082015250565b620002c1816200024a565b8114620002cd57600080fd5b50565b620002db816200027e565b8114620002e757600080fd5b50565b610eab80620002fa6000396000f3fe608060405234801561001057600080fd5b50600436106100575760003560e01c8063276184ae1461005c578063368fe8911461007a5780638ff62129146100af5780639e9580f6146100cd578063cb44c5f3146100e9575b600080fd5b610064610107565b6040516100719190610987565b60405180910390f35b610094600480360381019061008f919061075e565b61012d565b6040516100a696959493929190610a56565b60405180910390f35b6100b7610211565b6040516100c49190610a3b565b60405180910390f35b6100e760048036038101906100e291906106ef565b610217565b005b6100f16104b4565b6040516100fe9190610987565b60405180910390f35b600160009054906101000a900473ffffffffffffffffffffffffffffffffffffffff1681565b600360205280600052604060002060009150905080600001549080600101805461015690610c0a565b80601f016020809104026020016040519081016040528092919081815260200182805461018290610c0a565b80156101cf5780601f106101a4576101008083540402835291602001916101cf565b820191906000526020600020905b8154815290600101906020018083116101b257829003601f168201915b5050505050908060020154908060030154908060040154908060050160009054906101000a900473ffffffffffffffffffffffffffffffffffffffff16905086565b60025481565b6000821161025a576040517f08c379a0000000000000000000000000000000000000000000000000000000008152600401610251906109f9565b60405180910390fd5b42811161029c576040517f08c379a0000000000000000000000000000000000000000000000000000000008152600401610293906109d9565b60405180910390fd5b600560009054906101000a900473ffffffffffffffffffffffffffffffffffffffff1673ffffffffffffffffffffffffffffffffffffffff166323b872dd3360008054906101000a900473ffffffffffffffffffffffffffffffffffffffff166002546040518463ffffffff1660e01b815260040161031d939291906109a2565b602060405180830381600087803b15801561033757600080fd5b505af115801561034b573d6000803e3d6000fd5b505050506040513d601f19601f8201168201806040525081019061036f91906106c2565b506006600081548092919061038390610ca1565b9190505550600060036000600654815260200190815260200160002090506006548160000181905550838160010190805190602001906103c4929190610585565b50828160020181905550818160030181905550428160040181905550338160050160006101000a81548173ffffffffffffffffffffffffffffffffffffffff021916908373ffffffffffffffffffffffffffffffffffffffff160217905550610476600654600460003373ffffffffffffffffffffffffffffffffffffffff1673ffffffffffffffffffffffffffffffffffffffff1681526020019081526020016000206104d890919063ffffffff16565b507f14d5903d3a66b5a84a9b071aa80c7e52f39083618872ed974acd3f2e6b359359816040516104a69190610a19565b60405180910390a150505050565b60008054906101000a900473ffffffffffffffffffffffffffffffffffffffff1681565b60006104ea836000018360001b6104f2565b905092915050565b60006104fe8383610562565b61055757826000018290806001815401808255809150506001900390600052602060002001600090919091909150558260000180549050836001016000848152602001908152602001600020819055506001905061055c565b600090505b92915050565b600080836001016000848152602001908152602001600020541415905092915050565b82805461059190610c0a565b90600052602060002090601f0160209004810192826105b357600085556105fa565b82601f106105cc57805160ff19168380011785556105fa565b828001600101855582156105fa579182015b828111156105f95782518255916020019190600101906105de565b5b509050610607919061060b565b5090565b5b8082111561062457600081600090555060010161060c565b5090565b600061063b61063684610ae3565b610abe565b90508281526020810184848401111561065757610656610d7c565b5b610662848285610bc8565b509392505050565b60008151905061067981610e47565b92915050565b600082601f83011261069457610693610d77565b5b81356106a4848260208601610628565b91505092915050565b6000813590506106bc81610e5e565b92915050565b6000602082840312156106d8576106d7610d86565b5b60006106e68482850161066a565b91505092915050565b60008060006060848603121561070857610707610d86565b5b600084013567ffffffffffffffff81111561072657610725610d81565b5b6107328682870161067f565b9350506020610743868287016106ad565b9250506040610754868287016106ad565b9150509250925092565b60006020828403121561077457610773610d86565b5b6000610782848285016106ad565b91505092915050565b61079481610b80565b82525050565b6107a381610b80565b82525050565b60006107b482610b29565b6107be8185610b45565b93506107ce818560208601610bd7565b6107d781610d8b565b840191505092915050565b600081546107ef81610c0a565b6107f98186610b34565b94506001821660008114610814576001811461082657610859565b60ff1983168652602086019350610859565b61082f85610b14565b60005b8381101561085157815481890152600182019150602081019050610832565b808801955050505b50505092915050565b600061086f602183610b45565b915061087a82610da9565b604082019050919050565b6000610892602783610b45565b915061089d82610df8565b604082019050919050565b600060c0830160008084015490506108bf81610c56565b6108cc6000870182610969565b506001840185830360208701526108e383826107e2565b925050600284015490506108f681610c56565b6109036040870182610969565b506003840154905061091481610c56565b6109216060870182610969565b506004840154905061093281610c56565b61093f6080870182610969565b506005840154905061095081610c3c565b61095d60a087018261078b565b50819250505092915050565b61097281610bbe565b82525050565b61098181610bbe565b82525050565b600060208201905061099c600083018461079a565b92915050565b60006060820190506109b7600083018661079a565b6109c4602083018561079a565b6109d16040830184610978565b949350505050565b600060208201905081810360008301526109f281610862565b9050919050565b60006020820190508181036000830152610a1281610885565b9050919050565b60006020820190508181036000830152610a3381846108a8565b905092915050565b6000602082019050610a506000830184610978565b92915050565b600060c082019050610a6b6000830189610978565b8181036020830152610a7d81886107a9565b9050610a8c6040830187610978565b610a996060830186610978565b610aa66080830185610978565b610ab360a083018461079a565b979650505050505050565b6000610ac8610ad9565b9050610ad48282610c70565b919050565b6000604051905090565b600067ffffffffffffffff821115610afe57610afd610d48565b5b610b0782610d8b565b9050602081019050919050565b60008190508160005260206000209050919050565b600081519050919050565b600082825260208201905092915050565b600082825260208201905092915050565b600073ffffffffffffffffffffffffffffffffffffffff82169050919050565b6000819050919050565b6000610b8b82610b9e565b9050919050565b60008115159050919050565b600073ffffffffffffffffffffffffffffffffffffffff82169050919050565b6000819050919050565b82818337600083830152505050565b60005b83811015610bf5578082015181840152602081019050610bda565b83811115610c04576000848401525b50505050565b60006002820490506001821680610c2257607f821691505b60208210811415610c3657610c35610d19565b5b50919050565b6000610c4f610c4a83610d9c565b610b56565b9050919050565b6000610c69610c6483610d9c565b610b76565b9050919050565b610c7982610d8b565b810181811067ffffffffffffffff82111715610c9857610c97610d48565b5b80604052505050565b6000610cac82610bbe565b91507fffffffffffffffffffffffffffffffffffffffffffffffffffffffffffffffff821415610cdf57610cde610cea565b5b600182019050919050565b7f4e487b7100000000000000000000000000000000000000000000000000000000600052601160045260246000fd5b7f4e487b7100000000000000000000000000000000000000000000000000000000600052602260045260246000fd5b7f4e487b7100000000000000000000000000000000000000000000000000000000600052604160045260246000fd5b600080fd5b600080fd5b600080fd5b600080fd5b6000601f19601f8301169050919050565b60008160001c9050919050565b7f53746172742074696d652063616e6e6f7420626520696e20746865207061737460008201527f2100000000000000000000000000000000000000000000000000000000000000602082015250565b7f4d6178207469636b657473206e6565647320746f20626520677265617465722060008201527f7468616e20302100000000000000000000000000000000000000000000000000602082015250565b610e5081610b92565b8114610e5b57600080fd5b50565b610e6781610bbe565b8114610e7257600080fd5b5056fea26469706673582212205943caf5d30bb7262b5981f0547a1e18315731f45488559fbff436b09f2059bc64736f6c63430008070033",
					"opcodes": "PUSH1 0x80 PUSH1 0x40 MSTORE CALLVALUE DUP1 ISZERO PUSH3 0x11 JUMPI PUSH1 0x0 DUP1 REVERT JUMPDEST POP PUSH1 0x40 MLOAD PUSH3 0x11A5 CODESIZE SUB DUP1 PUSH3 0x11A5 DUP4 CODECOPY DUP2 DUP2 ADD PUSH1 0x40 MSTORE DUP2 ADD SWAP1 PUSH3 0x37 SWAP2 SWAP1 PUSH3 0x1A9 JUMP JUMPDEST PUSH1 0x0 PUSH20 0xFFFFFFFFFFFFFFFFFFFFFFFFFFFFFFFFFFFFFFFF AND DUP3 PUSH20 0xFFFFFFFFFFFFFFFFFFFFFFFFFFFFFFFFFFFFFFFF AND EQ ISZERO PUSH3 0xAA JUMPI PUSH1 0x40 MLOAD PUSH32 0x8C379A000000000000000000000000000000000000000000000000000000000 DUP2 MSTORE PUSH1 0x4 ADD PUSH3 0xA1 SWAP1 PUSH3 0x217 JUMP JUMPDEST PUSH1 0x40 MLOAD DUP1 SWAP2 SUB SWAP1 REVERT JUMPDEST CALLER PUSH1 0x0 DUP1 PUSH2 0x100 EXP DUP2 SLOAD DUP2 PUSH20 0xFFFFFFFFFFFFFFFFFFFFFFFFFFFFFFFFFFFFFFFF MUL NOT AND SWAP1 DUP4 PUSH20 0xFFFFFFFFFFFFFFFFFFFFFFFFFFFFFFFFFFFFFFFF AND MUL OR SWAP1 SSTORE POP DUP2 PUSH1 0x1 PUSH1 0x0 PUSH2 0x100 EXP DUP2 SLOAD DUP2 PUSH20 0xFFFFFFFFFFFFFFFFFFFFFFFFFFFFFFFFFFFFFFFF MUL NOT AND SWAP1 DUP4 PUSH20 0xFFFFFFFFFFFFFFFFFFFFFFFFFFFFFFFFFFFFFFFF AND MUL OR SWAP1 SSTORE POP DUP1 PUSH1 0x2 DUP2 SWAP1 SSTORE POP DUP2 PUSH1 0x5 PUSH1 0x0 PUSH2 0x100 EXP DUP2 SLOAD DUP2 PUSH20 0xFFFFFFFFFFFFFFFFFFFFFFFFFFFFFFFFFFFFFFFF MUL NOT AND SWAP1 DUP4 PUSH20 0xFFFFFFFFFFFFFFFFFFFFFFFFFFFFFFFFFFFFFFFF AND MUL OR SWAP1 SSTORE POP POP POP PUSH3 0x2EA JUMP JUMPDEST PUSH1 0x0 DUP2 MLOAD SWAP1 POP PUSH3 0x18C DUP2 PUSH3 0x2B6 JUMP JUMPDEST SWAP3 SWAP2 POP POP JUMP JUMPDEST PUSH1 0x0 DUP2 MLOAD SWAP1 POP PUSH3 0x1A3 DUP2 PUSH3 0x2D0 JUMP JUMPDEST SWAP3 SWAP2 POP POP JUMP JUMPDEST PUSH1 0x0 DUP1 PUSH1 0x40 DUP4 DUP6 SUB SLT ISZERO PUSH3 0x1C3 JUMPI PUSH3 0x1C2 PUSH3 0x288 JUMP JUMPDEST JUMPDEST PUSH1 0x0 PUSH3 0x1D3 DUP6 DUP3 DUP7 ADD PUSH3 0x17B JUMP JUMPDEST SWAP3 POP POP PUSH1 0x20 PUSH3 0x1E6 DUP6 DUP3 DUP7 ADD PUSH3 0x192 JUMP JUMPDEST SWAP2 POP POP SWAP3 POP SWAP3 SWAP1 POP JUMP JUMPDEST PUSH1 0x0 PUSH3 0x1FF PUSH1 0x1A DUP4 PUSH3 0x239 JUMP JUMPDEST SWAP2 POP PUSH3 0x20C DUP3 PUSH3 0x28D JUMP JUMPDEST PUSH1 0x20 DUP3 ADD SWAP1 POP SWAP2 SWAP1 POP JUMP JUMPDEST PUSH1 0x0 PUSH1 0x20 DUP3 ADD SWAP1 POP DUP2 DUP2 SUB PUSH1 0x0 DUP4 ADD MSTORE PUSH3 0x232 DUP2 PUSH3 0x1F0 JUMP JUMPDEST SWAP1 POP SWAP2 SWAP1 POP JUMP JUMPDEST PUSH1 0x0 DUP3 DUP3 MSTORE PUSH1 0x20 DUP3 ADD SWAP1 POP SWAP3 SWAP2 POP POP JUMP JUMPDEST PUSH1 0x0 PUSH3 0x257 DUP3 PUSH3 0x25E JUMP JUMPDEST SWAP1 POP SWAP2 SWAP1 POP JUMP JUMPDEST PUSH1 0x0 PUSH20 0xFFFFFFFFFFFFFFFFFFFFFFFFFFFFFFFFFFFFFFFF DUP3 AND SWAP1 POP SWAP2 SWAP1 POP JUMP JUMPDEST PUSH1 0x0 DUP2 SWAP1 POP SWAP2 SWAP1 POP JUMP JUMPDEST PUSH1 0x0 DUP1 REVERT JUMPDEST PUSH32 0x4552433230206164647265737320697320726571756972656421000000000000 PUSH1 0x0 DUP3 ADD MSTORE POP JUMP JUMPDEST PUSH3 0x2C1 DUP2 PUSH3 0x24A JUMP JUMPDEST DUP2 EQ PUSH3 0x2CD JUMPI PUSH1 0x0 DUP1 REVERT JUMPDEST POP JUMP JUMPDEST PUSH3 0x2DB DUP2 PUSH3 0x27E JUMP JUMPDEST DUP2 EQ PUSH3 0x2E7 JUMPI PUSH1 0x0 DUP1 REVERT JUMPDEST POP JUMP JUMPDEST PUSH2 0xEAB DUP1 PUSH3 0x2FA PUSH1 0x0 CODECOPY PUSH1 0x0 RETURN INVALID PUSH1 0x80 PUSH1 0x40 MSTORE CALLVALUE DUP1 ISZERO PUSH2 0x10 JUMPI PUSH1 0x0 DUP1 REVERT JUMPDEST POP PUSH1 0x4 CALLDATASIZE LT PUSH2 0x57 JUMPI PUSH1 0x0 CALLDATALOAD PUSH1 0xE0 SHR DUP1 PUSH4 0x276184AE EQ PUSH2 0x5C JUMPI DUP1 PUSH4 0x368FE891 EQ PUSH2 0x7A JUMPI DUP1 PUSH4 0x8FF62129 EQ PUSH2 0xAF JUMPI DUP1 PUSH4 0x9E9580F6 EQ PUSH2 0xCD JUMPI DUP1 PUSH4 0xCB44C5F3 EQ PUSH2 0xE9 JUMPI JUMPDEST PUSH1 0x0 DUP1 REVERT JUMPDEST PUSH2 0x64 PUSH2 0x107 JUMP JUMPDEST PUSH1 0x40 MLOAD PUSH2 0x71 SWAP2 SWAP1 PUSH2 0x987 JUMP JUMPDEST PUSH1 0x40 MLOAD DUP1 SWAP2 SUB SWAP1 RETURN JUMPDEST PUSH2 0x94 PUSH1 0x4 DUP1 CALLDATASIZE SUB DUP2 ADD SWAP1 PUSH2 0x8F SWAP2 SWAP1 PUSH2 0x75E JUMP JUMPDEST PUSH2 0x12D JUMP JUMPDEST PUSH1 0x40 MLOAD PUSH2 0xA6 SWAP7 SWAP6 SWAP5 SWAP4 SWAP3 SWAP2 SWAP1 PUSH2 0xA56 JUMP JUMPDEST PUSH1 0x40 MLOAD DUP1 SWAP2 SUB SWAP1 RETURN JUMPDEST PUSH2 0xB7 PUSH2 0x211 JUMP JUMPDEST PUSH1 0x40 MLOAD PUSH2 0xC4 SWAP2 SWAP1 PUSH2 0xA3B JUMP JUMPDEST PUSH1 0x40 MLOAD DUP1 SWAP2 SUB SWAP1 RETURN JUMPDEST PUSH2 0xE7 PUSH1 0x4 DUP1 CALLDATASIZE SUB DUP2 ADD SWAP1 PUSH2 0xE2 SWAP2 SWAP1 PUSH2 0x6EF JUMP JUMPDEST PUSH2 0x217 JUMP JUMPDEST STOP JUMPDEST PUSH2 0xF1 PUSH2 0x4B4 JUMP JUMPDEST PUSH1 0x40 MLOAD PUSH2 0xFE SWAP2 SWAP1 PUSH2 0x987 JUMP JUMPDEST PUSH1 0x40 MLOAD DUP1 SWAP2 SUB SWAP1 RETURN JUMPDEST PUSH1 0x1 PUSH1 0x0 SWAP1 SLOAD SWAP1 PUSH2 0x100 EXP SWAP1 DIV PUSH20 0xFFFFFFFFFFFFFFFFFFFFFFFFFFFFFFFFFFFFFFFF AND DUP2 JUMP JUMPDEST PUSH1 0x3 PUSH1 0x20 MSTORE DUP1 PUSH1 0x0 MSTORE PUSH1 0x40 PUSH1 0x0 KECCAK256 PUSH1 0x0 SWAP2 POP SWAP1 POP DUP1 PUSH1 0x0 ADD SLOAD SWAP1 DUP1 PUSH1 0x1 ADD DUP1 SLOAD PUSH2 0x156 SWAP1 PUSH2 0xC0A JUMP JUMPDEST DUP1 PUSH1 0x1F ADD PUSH1 0x20 DUP1 SWAP2 DIV MUL PUSH1 0x20 ADD PUSH1 0x40 MLOAD SWAP1 DUP2 ADD PUSH1 0x40 MSTORE DUP1 SWAP3 SWAP2 SWAP1 DUP2 DUP2 MSTORE PUSH1 0x20 ADD DUP3 DUP1 SLOAD PUSH2 0x182 SWAP1 PUSH2 0xC0A JUMP JUMPDEST DUP1 ISZERO PUSH2 0x1CF JUMPI DUP1 PUSH1 0x1F LT PUSH2 0x1A4 JUMPI PUSH2 0x100 DUP1 DUP4 SLOAD DIV MUL DUP4 MSTORE SWAP2 PUSH1 0x20 ADD SWAP2 PUSH2 0x1CF JUMP JUMPDEST DUP3 ADD SWAP2 SWAP1 PUSH1 0x0 MSTORE PUSH1 0x20 PUSH1 0x0 KECCAK256 SWAP1 JUMPDEST DUP2 SLOAD DUP2 MSTORE SWAP1 PUSH1 0x1 ADD SWAP1 PUSH1 0x20 ADD DUP1 DUP4 GT PUSH2 0x1B2 JUMPI DUP3 SWAP1 SUB PUSH1 0x1F AND DUP3 ADD SWAP2 JUMPDEST POP POP POP POP POP SWAP1 DUP1 PUSH1 0x2 ADD SLOAD SWAP1 DUP1 PUSH1 0x3 ADD SLOAD SWAP1 DUP1 PUSH1 0x4 ADD SLOAD SWAP1 DUP1 PUSH1 0x5 ADD PUSH1 0x0 SWAP1 SLOAD SWAP1 PUSH2 0x100 EXP SWAP1 DIV PUSH20 0xFFFFFFFFFFFFFFFFFFFFFFFFFFFFFFFFFFFFFFFF AND SWAP1 POP DUP7 JUMP JUMPDEST PUSH1 0x2 SLOAD DUP2 JUMP JUMPDEST PUSH1 0x0 DUP3 GT PUSH2 0x25A JUMPI PUSH1 0x40 MLOAD PUSH32 0x8C379A000000000000000000000000000000000000000000000000000000000 DUP2 MSTORE PUSH1 0x4 ADD PUSH2 0x251 SWAP1 PUSH2 0x9F9 JUMP JUMPDEST PUSH1 0x40 MLOAD DUP1 SWAP2 SUB SWAP1 REVERT JUMPDEST TIMESTAMP DUP2 GT PUSH2 0x29C JUMPI PUSH1 0x40 MLOAD PUSH32 0x8C379A000000000000000000000000000000000000000000000000000000000 DUP2 MSTORE PUSH1 0x4 ADD PUSH2 0x293 SWAP1 PUSH2 0x9D9 JUMP JUMPDEST PUSH1 0x40 MLOAD DUP1 SWAP2 SUB SWAP1 REVERT JUMPDEST PUSH1 0x5 PUSH1 0x0 SWAP1 SLOAD SWAP1 PUSH2 0x100 EXP SWAP1 DIV PUSH20 0xFFFFFFFFFFFFFFFFFFFFFFFFFFFFFFFFFFFFFFFF AND PUSH20 0xFFFFFFFFFFFFFFFFFFFFFFFFFFFFFFFFFFFFFFFF AND PUSH4 0x23B872DD CALLER PUSH1 0x0 DUP1 SLOAD SWAP1 PUSH2 0x100 EXP SWAP1 DIV PUSH20 0xFFFFFFFFFFFFFFFFFFFFFFFFFFFFFFFFFFFFFFFF AND PUSH1 0x2 SLOAD PUSH1 0x40 MLOAD DUP5 PUSH4 0xFFFFFFFF AND PUSH1 0xE0 SHL DUP2 MSTORE PUSH1 0x4 ADD PUSH2 0x31D SWAP4 SWAP3 SWAP2 SWAP1 PUSH2 0x9A2 JUMP JUMPDEST PUSH1 0x20 PUSH1 0x40 MLOAD DUP1 DUP4 SUB DUP2 PUSH1 0x0 DUP8 DUP1 EXTCODESIZE ISZERO DUP1 ISZERO PUSH2 0x337 JUMPI PUSH1 0x0 DUP1 REVERT JUMPDEST POP GAS CALL ISZERO DUP1 ISZERO PUSH2 0x34B JUMPI RETURNDATASIZE PUSH1 0x0 DUP1 RETURNDATACOPY RETURNDATASIZE PUSH1 0x0 REVERT JUMPDEST POP POP POP POP PUSH1 0x40 MLOAD RETURNDATASIZE PUSH1 0x1F NOT PUSH1 0x1F DUP3 ADD AND DUP3 ADD DUP1 PUSH1 0x40 MSTORE POP DUP2 ADD SWAP1 PUSH2 0x36F SWAP2 SWAP1 PUSH2 0x6C2 JUMP JUMPDEST POP PUSH1 0x6 PUSH1 0x0 DUP2 SLOAD DUP1 SWAP3 SWAP2 SWAP1 PUSH2 0x383 SWAP1 PUSH2 0xCA1 JUMP JUMPDEST SWAP2 SWAP1 POP SSTORE POP PUSH1 0x0 PUSH1 0x3 PUSH1 0x0 PUSH1 0x6 SLOAD DUP2 MSTORE PUSH1 0x20 ADD SWAP1 DUP2 MSTORE PUSH1 0x20 ADD PUSH1 0x0 KECCAK256 SWAP1 POP PUSH1 0x6 SLOAD DUP2 PUSH1 0x0 ADD DUP2 SWAP1 SSTORE POP DUP4 DUP2 PUSH1 0x1 ADD SWAP1 DUP1 MLOAD SWAP1 PUSH1 0x20 ADD SWAP1 PUSH2 0x3C4 SWAP3 SWAP2 SWAP1 PUSH2 0x585 JUMP JUMPDEST POP DUP3 DUP2 PUSH1 0x2 ADD DUP2 SWAP1 SSTORE POP DUP2 DUP2 PUSH1 0x3 ADD DUP2 SWAP1 SSTORE POP TIMESTAMP DUP2 PUSH1 0x4 ADD DUP2 SWAP1 SSTORE POP CALLER DUP2 PUSH1 0x5 ADD PUSH1 0x0 PUSH2 0x100 EXP DUP2 SLOAD DUP2 PUSH20 0xFFFFFFFFFFFFFFFFFFFFFFFFFFFFFFFFFFFFFFFF MUL NOT AND SWAP1 DUP4 PUSH20 0xFFFFFFFFFFFFFFFFFFFFFFFFFFFFFFFFFFFFFFFF AND MUL OR SWAP1 SSTORE POP PUSH2 0x476 PUSH1 0x6 SLOAD PUSH1 0x4 PUSH1 0x0 CALLER PUSH20 0xFFFFFFFFFFFFFFFFFFFFFFFFFFFFFFFFFFFFFFFF AND PUSH20 0xFFFFFFFFFFFFFFFFFFFFFFFFFFFFFFFFFFFFFFFF AND DUP2 MSTORE PUSH1 0x20 ADD SWAP1 DUP2 MSTORE PUSH1 0x20 ADD PUSH1 0x0 KECCAK256 PUSH2 0x4D8 SWAP1 SWAP2 SWAP1 PUSH4 0xFFFFFFFF AND JUMP JUMPDEST POP PUSH32 0x14D5903D3A66B5A84A9B071AA80C7E52F39083618872ED974ACD3F2E6B359359 DUP2 PUSH1 0x40 MLOAD PUSH2 0x4A6 SWAP2 SWAP1 PUSH2 0xA19 JUMP JUMPDEST PUSH1 0x40 MLOAD DUP1 SWAP2 SUB SWAP1 LOG1 POP POP POP POP JUMP JUMPDEST PUSH1 0x0 DUP1 SLOAD SWAP1 PUSH2 0x100 EXP SWAP1 DIV PUSH20 0xFFFFFFFFFFFFFFFFFFFFFFFFFFFFFFFFFFFFFFFF AND DUP2 JUMP JUMPDEST PUSH1 0x0 PUSH2 0x4EA DUP4 PUSH1 0x0 ADD DUP4 PUSH1 0x0 SHL PUSH2 0x4F2 JUMP JUMPDEST SWAP1 POP SWAP3 SWAP2 POP POP JUMP JUMPDEST PUSH1 0x0 PUSH2 0x4FE DUP4 DUP4 PUSH2 0x562 JUMP JUMPDEST PUSH2 0x557 JUMPI DUP3 PUSH1 0x0 ADD DUP3 SWAP1 DUP1 PUSH1 0x1 DUP2 SLOAD ADD DUP1 DUP3 SSTORE DUP1 SWAP2 POP POP PUSH1 0x1 SWAP1 SUB SWAP1 PUSH1 0x0 MSTORE PUSH1 0x20 PUSH1 0x0 KECCAK256 ADD PUSH1 0x0 SWAP1 SWAP2 SWAP1 SWAP2 SWAP1 SWAP2 POP SSTORE DUP3 PUSH1 0x0 ADD DUP1 SLOAD SWAP1 POP DUP4 PUSH1 0x1 ADD PUSH1 0x0 DUP5 DUP2 MSTORE PUSH1 0x20 ADD SWAP1 DUP2 MSTORE PUSH1 0x20 ADD PUSH1 0x0 KECCAK256 DUP2 SWAP1 SSTORE POP PUSH1 0x1 SWAP1 POP PUSH2 0x55C JUMP JUMPDEST PUSH1 0x0 SWAP1 POP JUMPDEST SWAP3 SWAP2 POP POP JUMP JUMPDEST PUSH1 0x0 DUP1 DUP4 PUSH1 0x1 ADD PUSH1 0x0 DUP5 DUP2 MSTORE PUSH1 0x20 ADD SWAP1 DUP2 MSTORE PUSH1 0x20 ADD PUSH1 0x0 KECCAK256 SLOAD EQ ISZERO SWAP1 POP SWAP3 SWAP2 POP POP JUMP JUMPDEST DUP3 DUP1 SLOAD PUSH2 0x591 SWAP1 PUSH2 0xC0A JUMP JUMPDEST SWAP1 PUSH1 0x0 MSTORE PUSH1 0x20 PUSH1 0x0 KECCAK256 SWAP1 PUSH1 0x1F ADD PUSH1 0x20 SWAP1 DIV DUP2 ADD SWAP3 DUP3 PUSH2 0x5B3 JUMPI PUSH1 0x0 DUP6 SSTORE PUSH2 0x5FA JUMP JUMPDEST DUP3 PUSH1 0x1F LT PUSH2 0x5CC JUMPI DUP1 MLOAD PUSH1 0xFF NOT AND DUP4 DUP1 ADD OR DUP6 SSTORE PUSH2 0x5FA JUMP JUMPDEST DUP3 DUP1 ADD PUSH1 0x1 ADD DUP6 SSTORE DUP3 ISZERO PUSH2 0x5FA JUMPI SWAP2 DUP3 ADD JUMPDEST DUP3 DUP2 GT ISZERO PUSH2 0x5F9 JUMPI DUP3 MLOAD DUP3 SSTORE SWAP2 PUSH1 0x20 ADD SWAP2 SWAP1 PUSH1 0x1 ADD SWAP1 PUSH2 0x5DE JUMP JUMPDEST JUMPDEST POP SWAP1 POP PUSH2 0x607 SWAP2 SWAP1 PUSH2 0x60B JUMP JUMPDEST POP SWAP1 JUMP JUMPDEST JUMPDEST DUP1 DUP3 GT ISZERO PUSH2 0x624 JUMPI PUSH1 0x0 DUP2 PUSH1 0x0 SWAP1 SSTORE POP PUSH1 0x1 ADD PUSH2 0x60C JUMP JUMPDEST POP SWAP1 JUMP JUMPDEST PUSH1 0x0 PUSH2 0x63B PUSH2 0x636 DUP5 PUSH2 0xAE3 JUMP JUMPDEST PUSH2 0xABE JUMP JUMPDEST SWAP1 POP DUP3 DUP2 MSTORE PUSH1 0x20 DUP2 ADD DUP5 DUP5 DUP5 ADD GT ISZERO PUSH2 0x657 JUMPI PUSH2 0x656 PUSH2 0xD7C JUMP JUMPDEST JUMPDEST PUSH2 0x662 DUP5 DUP3 DUP6 PUSH2 0xBC8 JUMP JUMPDEST POP SWAP4 SWAP3 POP POP POP JUMP JUMPDEST PUSH1 0x0 DUP2 MLOAD SWAP1 POP PUSH2 0x679 DUP2 PUSH2 0xE47 JUMP JUMPDEST SWAP3 SWAP2 POP POP JUMP JUMPDEST PUSH1 0x0 DUP3 PUSH1 0x1F DUP4 ADD SLT PUSH2 0x694 JUMPI PUSH2 0x693 PUSH2 0xD77 JUMP JUMPDEST JUMPDEST DUP2 CALLDATALOAD PUSH2 0x6A4 DUP5 DUP3 PUSH1 0x20 DUP7 ADD PUSH2 0x628 JUMP JUMPDEST SWAP2 POP POP SWAP3 SWAP2 POP POP JUMP JUMPDEST PUSH1 0x0 DUP2 CALLDATALOAD SWAP1 POP PUSH2 0x6BC DUP2 PUSH2 0xE5E JUMP JUMPDEST SWAP3 SWAP2 POP POP JUMP JUMPDEST PUSH1 0x0 PUSH1 0x20 DUP3 DUP5 SUB SLT ISZERO PUSH2 0x6D8 JUMPI PUSH2 0x6D7 PUSH2 0xD86 JUMP JUMPDEST JUMPDEST PUSH1 0x0 PUSH2 0x6E6 DUP5 DUP3 DUP6 ADD PUSH2 0x66A JUMP JUMPDEST SWAP2 POP POP SWAP3 SWAP2 POP POP JUMP JUMPDEST PUSH1 0x0 DUP1 PUSH1 0x0 PUSH1 0x60 DUP5 DUP7 SUB SLT ISZERO PUSH2 0x708 JUMPI PUSH2 0x707 PUSH2 0xD86 JUMP JUMPDEST JUMPDEST PUSH1 0x0 DUP5 ADD CALLDATALOAD PUSH8 0xFFFFFFFFFFFFFFFF DUP2 GT ISZERO PUSH2 0x726 JUMPI PUSH2 0x725 PUSH2 0xD81 JUMP JUMPDEST JUMPDEST PUSH2 0x732 DUP7 DUP3 DUP8 ADD PUSH2 0x67F JUMP JUMPDEST SWAP4 POP POP PUSH1 0x20 PUSH2 0x743 DUP7 DUP3 DUP8 ADD PUSH2 0x6AD JUMP JUMPDEST SWAP3 POP POP PUSH1 0x40 PUSH2 0x754 DUP7 DUP3 DUP8 ADD PUSH2 0x6AD JUMP JUMPDEST SWAP2 POP POP SWAP3 POP SWAP3 POP SWAP3 JUMP JUMPDEST PUSH1 0x0 PUSH1 0x20 DUP3 DUP5 SUB SLT ISZERO PUSH2 0x774 JUMPI PUSH2 0x773 PUSH2 0xD86 JUMP JUMPDEST JUMPDEST PUSH1 0x0 PUSH2 0x782 DUP5 DUP3 DUP6 ADD PUSH2 0x6AD JUMP JUMPDEST SWAP2 POP POP SWAP3 SWAP2 POP POP JUMP JUMPDEST PUSH2 0x794 DUP2 PUSH2 0xB80 JUMP JUMPDEST DUP3 MSTORE POP POP JUMP JUMPDEST PUSH2 0x7A3 DUP2 PUSH2 0xB80 JUMP JUMPDEST DUP3 MSTORE POP POP JUMP JUMPDEST PUSH1 0x0 PUSH2 0x7B4 DUP3 PUSH2 0xB29 JUMP JUMPDEST PUSH2 0x7BE DUP2 DUP6 PUSH2 0xB45 JUMP JUMPDEST SWAP4 POP PUSH2 0x7CE DUP2 DUP6 PUSH1 0x20 DUP7 ADD PUSH2 0xBD7 JUMP JUMPDEST PUSH2 0x7D7 DUP2 PUSH2 0xD8B JUMP JUMPDEST DUP5 ADD SWAP2 POP POP SWAP3 SWAP2 POP POP JUMP JUMPDEST PUSH1 0x0 DUP2 SLOAD PUSH2 0x7EF DUP2 PUSH2 0xC0A JUMP JUMPDEST PUSH2 0x7F9 DUP2 DUP7 PUSH2 0xB34 JUMP JUMPDEST SWAP5 POP PUSH1 0x1 DUP3 AND PUSH1 0x0 DUP2 EQ PUSH2 0x814 JUMPI PUSH1 0x1 DUP2 EQ PUSH2 0x826 JUMPI PUSH2 0x859 JUMP JUMPDEST PUSH1 0xFF NOT DUP4 AND DUP7 MSTORE PUSH1 0x20 DUP7 ADD SWAP4 POP PUSH2 0x859 JUMP JUMPDEST PUSH2 0x82F DUP6 PUSH2 0xB14 JUMP JUMPDEST PUSH1 0x0 JUMPDEST DUP4 DUP2 LT ISZERO PUSH2 0x851 JUMPI DUP2 SLOAD DUP2 DUP10 ADD MSTORE PUSH1 0x1 DUP3 ADD SWAP2 POP PUSH1 0x20 DUP2 ADD SWAP1 POP PUSH2 0x832 JUMP JUMPDEST DUP1 DUP9 ADD SWAP6 POP POP POP JUMPDEST POP POP POP SWAP3 SWAP2 POP POP JUMP JUMPDEST PUSH1 0x0 PUSH2 0x86F PUSH1 0x21 DUP4 PUSH2 0xB45 JUMP JUMPDEST SWAP2 POP PUSH2 0x87A DUP3 PUSH2 0xDA9 JUMP JUMPDEST PUSH1 0x40 DUP3 ADD SWAP1 POP SWAP2 SWAP1 POP JUMP JUMPDEST PUSH1 0x0 PUSH2 0x892 PUSH1 0x27 DUP4 PUSH2 0xB45 JUMP JUMPDEST SWAP2 POP PUSH2 0x89D DUP3 PUSH2 0xDF8 JUMP JUMPDEST PUSH1 0x40 DUP3 ADD SWAP1 POP SWAP2 SWAP1 POP JUMP JUMPDEST PUSH1 0x0 PUSH1 0xC0 DUP4 ADD PUSH1 0x0 DUP1 DUP5 ADD SLOAD SWAP1 POP PUSH2 0x8BF DUP2 PUSH2 0xC56 JUMP JUMPDEST PUSH2 0x8CC PUSH1 0x0 DUP8 ADD DUP3 PUSH2 0x969 JUMP JUMPDEST POP PUSH1 0x1 DUP5 ADD DUP6 DUP4 SUB PUSH1 0x20 DUP8 ADD MSTORE PUSH2 0x8E3 DUP4 DUP3 PUSH2 0x7E2 JUMP JUMPDEST SWAP3 POP POP PUSH1 0x2 DUP5 ADD SLOAD SWAP1 POP PUSH2 0x8F6 DUP2 PUSH2 0xC56 JUMP JUMPDEST PUSH2 0x903 PUSH1 0x40 DUP8 ADD DUP3 PUSH2 0x969 JUMP JUMPDEST POP PUSH1 0x3 DUP5 ADD SLOAD SWAP1 POP PUSH2 0x914 DUP2 PUSH2 0xC56 JUMP JUMPDEST PUSH2 0x921 PUSH1 0x60 DUP8 ADD DUP3 PUSH2 0x969 JUMP JUMPDEST POP PUSH1 0x4 DUP5 ADD SLOAD SWAP1 POP PUSH2 0x932 DUP2 PUSH2 0xC56 JUMP JUMPDEST PUSH2 0x93F PUSH1 0x80 DUP8 ADD DUP3 PUSH2 0x969 JUMP JUMPDEST POP PUSH1 0x5 DUP5 ADD SLOAD SWAP1 POP PUSH2 0x950 DUP2 PUSH2 0xC3C JUMP JUMPDEST PUSH2 0x95D PUSH1 0xA0 DUP8 ADD DUP3 PUSH2 0x78B JUMP JUMPDEST POP DUP2 SWAP3 POP POP POP SWAP3 SWAP2 POP POP JUMP JUMPDEST PUSH2 0x972 DUP2 PUSH2 0xBBE JUMP JUMPDEST DUP3 MSTORE POP POP JUMP JUMPDEST PUSH2 0x981 DUP2 PUSH2 0xBBE JUMP JUMPDEST DUP3 MSTORE POP POP JUMP JUMPDEST PUSH1 0x0 PUSH1 0x20 DUP3 ADD SWAP1 POP PUSH2 0x99C PUSH1 0x0 DUP4 ADD DUP5 PUSH2 0x79A JUMP JUMPDEST SWAP3 SWAP2 POP POP JUMP JUMPDEST PUSH1 0x0 PUSH1 0x60 DUP3 ADD SWAP1 POP PUSH2 0x9B7 PUSH1 0x0 DUP4 ADD DUP7 PUSH2 0x79A JUMP JUMPDEST PUSH2 0x9C4 PUSH1 0x20 DUP4 ADD DUP6 PUSH2 0x79A JUMP JUMPDEST PUSH2 0x9D1 PUSH1 0x40 DUP4 ADD DUP5 PUSH2 0x978 JUMP JUMPDEST SWAP5 SWAP4 POP POP POP POP JUMP JUMPDEST PUSH1 0x0 PUSH1 0x20 DUP3 ADD SWAP1 POP DUP2 DUP2 SUB PUSH1 0x0 DUP4 ADD MSTORE PUSH2 0x9F2 DUP2 PUSH2 0x862 JUMP JUMPDEST SWAP1 POP SWAP2 SWAP1 POP JUMP JUMPDEST PUSH1 0x0 PUSH1 0x20 DUP3 ADD SWAP1 POP DUP2 DUP2 SUB PUSH1 0x0 DUP4 ADD MSTORE PUSH2 0xA12 DUP2 PUSH2 0x885 JUMP JUMPDEST SWAP1 POP SWAP2 SWAP1 POP JUMP JUMPDEST PUSH1 0x0 PUSH1 0x20 DUP3 ADD SWAP1 POP DUP2 DUP2 SUB PUSH1 0x0 DUP4 ADD MSTORE PUSH2 0xA33 DUP2 DUP5 PUSH2 0x8A8 JUMP JUMPDEST SWAP1 POP SWAP3 SWAP2 POP POP JUMP JUMPDEST PUSH1 0x0 PUSH1 0x20 DUP3 ADD SWAP1 POP PUSH2 0xA50 PUSH1 0x0 DUP4 ADD DUP5 PUSH2 0x978 JUMP JUMPDEST SWAP3 SWAP2 POP POP JUMP JUMPDEST PUSH1 0x0 PUSH1 0xC0 DUP3 ADD SWAP1 POP PUSH2 0xA6B PUSH1 0x0 DUP4 ADD DUP10 PUSH2 0x978 JUMP JUMPDEST DUP2 DUP2 SUB PUSH1 0x20 DUP4 ADD MSTORE PUSH2 0xA7D DUP2 DUP9 PUSH2 0x7A9 JUMP JUMPDEST SWAP1 POP PUSH2 0xA8C PUSH1 0x40 DUP4 ADD DUP8 PUSH2 0x978 JUMP JUMPDEST PUSH2 0xA99 PUSH1 0x60 DUP4 ADD DUP7 PUSH2 0x978 JUMP JUMPDEST PUSH2 0xAA6 PUSH1 0x80 DUP4 ADD DUP6 PUSH2 0x978 JUMP JUMPDEST PUSH2 0xAB3 PUSH1 0xA0 DUP4 ADD DUP5 PUSH2 0x79A JUMP JUMPDEST SWAP8 SWAP7 POP POP POP POP POP POP POP JUMP JUMPDEST PUSH1 0x0 PUSH2 0xAC8 PUSH2 0xAD9 JUMP JUMPDEST SWAP1 POP PUSH2 0xAD4 DUP3 DUP3 PUSH2 0xC70 JUMP JUMPDEST SWAP2 SWAP1 POP JUMP JUMPDEST PUSH1 0x0 PUSH1 0x40 MLOAD SWAP1 POP SWAP1 JUMP JUMPDEST PUSH1 0x0 PUSH8 0xFFFFFFFFFFFFFFFF DUP3 GT ISZERO PUSH2 0xAFE JUMPI PUSH2 0xAFD PUSH2 0xD48 JUMP JUMPDEST JUMPDEST PUSH2 0xB07 DUP3 PUSH2 0xD8B JUMP JUMPDEST SWAP1 POP PUSH1 0x20 DUP2 ADD SWAP1 POP SWAP2 SWAP1 POP JUMP JUMPDEST PUSH1 0x0 DUP2 SWAP1 POP DUP2 PUSH1 0x0 MSTORE PUSH1 0x20 PUSH1 0x0 KECCAK256 SWAP1 POP SWAP2 SWAP1 POP JUMP JUMPDEST PUSH1 0x0 DUP2 MLOAD SWAP1 POP SWAP2 SWAP1 POP JUMP JUMPDEST PUSH1 0x0 DUP3 DUP3 MSTORE PUSH1 0x20 DUP3 ADD SWAP1 POP SWAP3 SWAP2 POP POP JUMP JUMPDEST PUSH1 0x0 DUP3 DUP3 MSTORE PUSH1 0x20 DUP3 ADD SWAP1 POP SWAP3 SWAP2 POP POP JUMP JUMPDEST PUSH1 0x0 PUSH20 0xFFFFFFFFFFFFFFFFFFFFFFFFFFFFFFFFFFFFFFFF DUP3 AND SWAP1 POP SWAP2 SWAP1 POP JUMP JUMPDEST PUSH1 0x0 DUP2 SWAP1 POP SWAP2 SWAP1 POP JUMP JUMPDEST PUSH1 0x0 PUSH2 0xB8B DUP3 PUSH2 0xB9E JUMP JUMPDEST SWAP1 POP SWAP2 SWAP1 POP JUMP JUMPDEST PUSH1 0x0 DUP2 ISZERO ISZERO SWAP1 POP SWAP2 SWAP1 POP JUMP JUMPDEST PUSH1 0x0 PUSH20 0xFFFFFFFFFFFFFFFFFFFFFFFFFFFFFFFFFFFFFFFF DUP3 AND SWAP1 POP SWAP2 SWAP1 POP JUMP JUMPDEST PUSH1 0x0 DUP2 SWAP1 POP SWAP2 SWAP1 POP JUMP JUMPDEST DUP3 DUP2 DUP4 CALLDATACOPY PUSH1 0x0 DUP4 DUP4 ADD MSTORE POP POP POP JUMP JUMPDEST PUSH1 0x0 JUMPDEST DUP4 DUP2 LT ISZERO PUSH2 0xBF5 JUMPI DUP1 DUP3 ADD MLOAD DUP2 DUP5 ADD MSTORE PUSH1 0x20 DUP2 ADD SWAP1 POP PUSH2 0xBDA JUMP JUMPDEST DUP4 DUP2 GT ISZERO PUSH2 0xC04 JUMPI PUSH1 0x0 DUP5 DUP5 ADD MSTORE JUMPDEST POP POP POP POP JUMP JUMPDEST PUSH1 0x0 PUSH1 0x2 DUP3 DIV SWAP1 POP PUSH1 0x1 DUP3 AND DUP1 PUSH2 0xC22 JUMPI PUSH1 0x7F DUP3 AND SWAP2 POP JUMPDEST PUSH1 0x20 DUP3 LT DUP2 EQ ISZERO PUSH2 0xC36 JUMPI PUSH2 0xC35 PUSH2 0xD19 JUMP JUMPDEST JUMPDEST POP SWAP2 SWAP1 POP JUMP JUMPDEST PUSH1 0x0 PUSH2 0xC4F PUSH2 0xC4A DUP4 PUSH2 0xD9C JUMP JUMPDEST PUSH2 0xB56 JUMP JUMPDEST SWAP1 POP SWAP2 SWAP1 POP JUMP JUMPDEST PUSH1 0x0 PUSH2 0xC69 PUSH2 0xC64 DUP4 PUSH2 0xD9C JUMP JUMPDEST PUSH2 0xB76 JUMP JUMPDEST SWAP1 POP SWAP2 SWAP1 POP JUMP JUMPDEST PUSH2 0xC79 DUP3 PUSH2 0xD8B JUMP JUMPDEST DUP2 ADD DUP2 DUP2 LT PUSH8 0xFFFFFFFFFFFFFFFF DUP3 GT OR ISZERO PUSH2 0xC98 JUMPI PUSH2 0xC97 PUSH2 0xD48 JUMP JUMPDEST JUMPDEST DUP1 PUSH1 0x40 MSTORE POP POP POP JUMP JUMPDEST PUSH1 0x0 PUSH2 0xCAC DUP3 PUSH2 0xBBE JUMP JUMPDEST SWAP2 POP PUSH32 0xFFFFFFFFFFFFFFFFFFFFFFFFFFFFFFFFFFFFFFFFFFFFFFFFFFFFFFFFFFFFFFFF DUP3 EQ ISZERO PUSH2 0xCDF JUMPI PUSH2 0xCDE PUSH2 0xCEA JUMP JUMPDEST JUMPDEST PUSH1 0x1 DUP3 ADD SWAP1 POP SWAP2 SWAP1 POP JUMP JUMPDEST PUSH32 0x4E487B7100000000000000000000000000000000000000000000000000000000 PUSH1 0x0 MSTORE PUSH1 0x11 PUSH1 0x4 MSTORE PUSH1 0x24 PUSH1 0x0 REVERT JUMPDEST PUSH32 0x4E487B7100000000000000000000000000000000000000000000000000000000 PUSH1 0x0 MSTORE PUSH1 0x22 PUSH1 0x4 MSTORE PUSH1 0x24 PUSH1 0x0 REVERT JUMPDEST PUSH32 0x4E487B7100000000000000000000000000000000000000000000000000000000 PUSH1 0x0 MSTORE PUSH1 0x41 PUSH1 0x4 MSTORE PUSH1 0x24 PUSH1 0x0 REVERT JUMPDEST PUSH1 0x0 DUP1 REVERT JUMPDEST PUSH1 0x0 DUP1 REVERT JUMPDEST PUSH1 0x0 DUP1 REVERT JUMPDEST PUSH1 0x0 DUP1 REVERT JUMPDEST PUSH1 0x0 PUSH1 0x1F NOT PUSH1 0x1F DUP4 ADD AND SWAP1 POP SWAP2 SWAP1 POP JUMP JUMPDEST PUSH1 0x0 DUP2 PUSH1 0x0 SHR SWAP1 POP SWAP2 SWAP1 POP JUMP JUMPDEST PUSH32 0x53746172742074696D652063616E6E6F7420626520696E207468652070617374 PUSH1 0x0 DUP3 ADD MSTORE PUSH32 0x2100000000000000000000000000000000000000000000000000000000000000 PUSH1 0x20 DUP3 ADD MSTORE POP JUMP JUMPDEST PUSH32 0x4D6178207469636B657473206E6565647320746F206265206772656174657220 PUSH1 0x0 DUP3 ADD MSTORE PUSH32 0x7468616E20302100000000000000000000000000000000000000000000000000 PUSH1 0x20 DUP3 ADD MSTORE POP JUMP JUMPDEST PUSH2 0xE50 DUP2 PUSH2 0xB92 JUMP JUMPDEST DUP2 EQ PUSH2 0xE5B JUMPI PUSH1 0x0 DUP1 REVERT JUMPDEST POP JUMP JUMPDEST PUSH2 0xE67 DUP2 PUSH2 0xBBE JUMP JUMPDEST DUP2 EQ PUSH2 0xE72 JUMPI PUSH1 0x0 DUP1 REVERT JUMPDEST POP JUMP INVALID LOG2 PUSH5 0x6970667358 0x22 SLT KECCAK256 MSIZE NUMBER 0xCA CREATE2 0xD3 SIGNEXTEND 0xB7 0x26 0x2B MSIZE DUP2 CREATE SLOAD PUSH27 0x1E18315731F45488559FBFF436B09F2059BC64736F6C6343000807 STOP CALLER "
				},
				"gasEstimates": {
					"creation": {
						"codeDepositCost": "751000",
						"executionCost": "infinite",
						"totalCost": "infinite"
					},
					"external": {
						"contractOwnerAddress()": "2577",
						"createEvent(string,uint256,uint256)": "infinite",
						"erc20Address()": "2492",
						"eventCreationFee()": "2451",
						"techTalkEvents(uint256)": "infinite"
					}
				},
				"methodIdentifiers": {
					"contractOwnerAddress()": "cb44c5f3",
					"createEvent(string,uint256,uint256)": "9e9580f6",
					"erc20Address()": "276184ae",
					"eventCreationFee()": "8ff62129",
					"techTalkEvents(uint256)": "368fe891"
				}
			},
			"storageLayout": {
				"storage": [
					{
						"astId": 686,
						"contract": "contracts/TTT.sol:TechTalkTicket",
						"label": "contractOwnerAddress",
						"offset": 0,
						"slot": "0",
						"type": "t_address"
					},
					{
						"astId": 688,
						"contract": "contracts/TTT.sol:TechTalkTicket",
						"label": "erc20Address",
						"offset": 0,
						"slot": "1",
						"type": "t_address"
					},
					{
						"astId": 690,
						"contract": "contracts/TTT.sol:TechTalkTicket",
						"label": "eventCreationFee",
						"offset": 0,
						"slot": "2",
						"type": "t_uint256"
					},
					{
						"astId": 695,
						"contract": "contracts/TTT.sol:TechTalkTicket",
						"label": "techTalkEvents",
						"offset": 0,
						"slot": "3",
						"type": "t_mapping(t_uint256,t_struct(TechTalkEvent)718_storage)"
					},
					{
						"astId": 700,
						"contract": "contracts/TTT.sol:TechTalkTicket",
						"label": "_creatorEventIds",
						"offset": 0,
						"slot": "4",
						"type": "t_mapping(t_address,t_struct(UintSet)546_storage)"
					},
					{
						"astId": 703,
						"contract": "contracts/TTT.sol:TechTalkTicket",
						"label": "_erc20",
						"offset": 0,
						"slot": "5",
						"type": "t_contract(IERC20)77"
					},
					{
						"astId": 705,
						"contract": "contracts/TTT.sol:TechTalkTicket",
						"label": "_eventIdCounter",
						"offset": 0,
						"slot": "6",
						"type": "t_uint256"
					}
				],
				"types": {
					"t_address": {
						"encoding": "inplace",
						"label": "address",
						"numberOfBytes": "20"
					},
					"t_array(t_bytes32)dyn_storage": {
						"base": "t_bytes32",
						"encoding": "dynamic_array",
						"label": "bytes32[]",
						"numberOfBytes": "32"
					},
					"t_bytes32": {
						"encoding": "inplace",
						"label": "bytes32",
						"numberOfBytes": "32"
					},
					"t_contract(IERC20)77": {
						"encoding": "inplace",
						"label": "contract IERC20",
						"numberOfBytes": "20"
					},
					"t_mapping(t_address,t_struct(UintSet)546_storage)": {
						"encoding": "mapping",
						"key": "t_address",
						"label": "mapping(address => struct EnumerableSet.UintSet)",
						"numberOfBytes": "32",
						"value": "t_struct(UintSet)546_storage"
					},
					"t_mapping(t_bytes32,t_uint256)": {
						"encoding": "mapping",
						"key": "t_bytes32",
						"label": "mapping(bytes32 => uint256)",
						"numberOfBytes": "32",
						"value": "t_uint256"
					},
					"t_mapping(t_uint256,t_struct(TechTalkEvent)718_storage)": {
						"encoding": "mapping",
						"key": "t_uint256",
						"label": "mapping(uint256 => struct TechTalkTicket.TechTalkEvent)",
						"numberOfBytes": "32",
						"value": "t_struct(TechTalkEvent)718_storage"
					},
					"t_string_storage": {
						"encoding": "bytes",
						"label": "string",
						"numberOfBytes": "32"
					},
					"t_struct(Set)88_storage": {
						"encoding": "inplace",
						"label": "struct EnumerableSet.Set",
						"members": [
							{
								"astId": 83,
								"contract": "contracts/TTT.sol:TechTalkTicket",
								"label": "_values",
								"offset": 0,
								"slot": "0",
								"type": "t_array(t_bytes32)dyn_storage"
							},
							{
								"astId": 87,
								"contract": "contracts/TTT.sol:TechTalkTicket",
								"label": "_indexes",
								"offset": 0,
								"slot": "1",
								"type": "t_mapping(t_bytes32,t_uint256)"
							}
						],
						"numberOfBytes": "64"
					},
					"t_struct(TechTalkEvent)718_storage": {
						"encoding": "inplace",
						"label": "struct TechTalkTicket.TechTalkEvent",
						"members": [
							{
								"astId": 707,
								"contract": "contracts/TTT.sol:TechTalkTicket",
								"label": "id",
								"offset": 0,
								"slot": "0",
								"type": "t_uint256"
							},
							{
								"astId": 709,
								"contract": "contracts/TTT.sol:TechTalkTicket",
								"label": "name",
								"offset": 0,
								"slot": "1",
								"type": "t_string_storage"
							},
							{
								"astId": 711,
								"contract": "contracts/TTT.sol:TechTalkTicket",
								"label": "maxTickets",
								"offset": 0,
								"slot": "2",
								"type": "t_uint256"
							},
							{
								"astId": 713,
								"contract": "contracts/TTT.sol:TechTalkTicket",
								"label": "startTime",
								"offset": 0,
								"slot": "3",
								"type": "t_uint256"
							},
							{
								"astId": 715,
								"contract": "contracts/TTT.sol:TechTalkTicket",
								"label": "createdAt",
								"offset": 0,
								"slot": "4",
								"type": "t_uint256"
							},
							{
								"astId": 717,
								"contract": "contracts/TTT.sol:TechTalkTicket",
								"label": "creator",
								"offset": 0,
								"slot": "5",
								"type": "t_address"
							}
						],
						"numberOfBytes": "192"
					},
					"t_struct(UintSet)546_storage": {
						"encoding": "inplace",
						"label": "struct EnumerableSet.UintSet",
						"members": [
							{
								"astId": 545,
								"contract": "contracts/TTT.sol:TechTalkTicket",
								"label": "_inner",
								"offset": 0,
								"slot": "0",
								"type": "t_struct(Set)88_storage"
							}
						],
						"numberOfBytes": "64"
					},
					"t_uint256": {
						"encoding": "inplace",
						"label": "uint256",
						"numberOfBytes": "32"
					}
				}
			},
			"userdoc": {
				"kind": "user",
				"methods": {},
				"version": 1
			}
		}
	}
}